:100000000C9434000C9451000C9451000C94510049
:100010000C9451000C9451000C94DC220C9451006F
:100020000C9451000C9451000C9451000C9451000C
:100030000C9451000C9451000C9451000C945100FC
:100040000C9451000C9451000C9451000C945100EC
:100050000C9451000C9451000C9451000C945100DC
:100060000C9451000C94510011241FBECFEFD8E026
:10007000DEBFCDBF11E0A0E0B1E0E4EFF8E402C0E4
:1000800005900D92A839B107D9F722E0A8E9B1E0AF
:1000900001C01D92A134B207E1F70E94B6040C948E
:1000A0006F240C9400006CE388E60E943502809374
:1000B000AF016BE388E60E9435028093AE016EE3E8
:1000C00088E60E9435028093AD016DE388E60E94C8
:1000D00035028093AC0160E488E60E94350280938B
:1000E000AB016FE388E60E9435028093AA0120915C
:1000F000AF019091AE012093A8019093A9012091A6
:10010000AD019091AC012093A6019093A70190912D
:10011000AB01292F382FC9018093A4019093A50129
:10012000089564E488E60E9435028093A30163E4A5
:1001300088E60E9435028093A20166E488E60E9468
:1001400035028093A10165E488E60E943502809320
:10015000A00168E488E60E94350280939F0167E46D
:1001600088E60E94350280939E012091A301909120
:10017000A20120939C0190939D012091A101909157
:10018000A00120939A0190939B0190919F01292FA8
:10019000382FC90180939801909399010895877031
:1001A000806480937C0087EC80937A0080917A0051
:1001B00086FDFCCF80917800909179000895CF93CF
:1001C000DF93CDB7DEB72E970FB6F894DEBF0FBE24
:1001D000CDBF04E110E00E9453000E949100809185
:1001E000A8019091A90189839A838091A601909199
:1001F000A7018B839C8380919C0190919D018D83AD
:100200009E8380E00E94CF0096958795969587956E
:100210008F83988781E00E94CF0096958795969569
:10022000879589879A8782E00E94CF009695879567
:10023000969587958B879C870D871E8720E04FEFCB
:100240005FEFBE016F5F7F4F8091B0019091B10170
:100250000E94461581E090E00E94730BBCCFCF93C3
:10026000DF9300D000D0CDB7DEB780E00E94CF0092
:1002700089839A8381E00E94CF008B839C8389E0ED
:1002800091E00E946C0289819A8196958795969556
:1002900087950E94790280E191E00E946C028B8137
:1002A0009C8196958795969587950F900F900F90C6
:1002B0000F90DF91CF910C947902CF93DF9300D010
:1002C000CDB7DEB782E00E94CF0089839A8388E1B0
:1002D00091E00E946C0289819A8196958795969506
:1002E00087950F900F90DF91CF910C94790282E85F
:1002F000809380008AE1809381008FE39CE9909352
:1003000087008093860088EB9BE090938900809320
:100310008800219A0895282F30E0A0EDB7E00E94D0
:10032000DF2224EB40E050E00E9416232053384F98
:1003300030938900209388000895CF93DF93CDB741
:10034000DEB72E970FB6F894DEBF0FBECDBF4FEFCE
:100350005FEFBE016F5F7F4F8091B0019091B1015F
:100360000E947516CD84DE84EB84FC8409851A8591
:100370002F8138854D815E816B817C8189819A8155
:100380000E94550490910101082F10E047E0949FCE
:10039000000D111D112483E0159507958A95E1F74D
:1003A0000093010180910001282F30E0A801481B33
:1003B0005109CA0157FF03C0C901801B910B049763
:1003C00034F2802F0E948B0100930001C0CF88E49B
:1003D0008093B800089584EA8093BC008091BC00AB
:1003E00087FFFCCF089584E98093BC008091BC0016
:1003F00084FDFCCF08958093BB0084E88093BC000B
:100400008091BC0087FFFCCF089584EC8093BC00F2
:100410008091BC0087FFFCCF8091BB00089584E8E9
:100420008093BC008091BC0087FFFCCF8091BB0013
:100430000895CF93DF9300D00F92CDB7DEB78983B5
:100440006A834B830E94EB018981880F0E94FB0124
:100450008A810E94FB018B810E94FB010F900F900B
:100460000F90DF91CF910C94F301CF93DF9300D0E5
:10047000CDB7DEB78A8369830E94EB018A81880F3A
:100480008A830E94FB0189810E94FB010E94EB018B
:100490008A8181600E94FB010E940F0289830E9471
:1004A000F30189810F900F90DF91CF9108959B0107
:1004B000AC0160E472E48FE090E00E9416232150CA
:1004C00031093093C5002093C40088E18093C100B6
:1004D00086E08093C2000895FC012081211101C0B3
:1004E000089501963091C00035FFFCCF2093C600DF
:1004F000F3CF1F93CF93DF93CDB7DEB761970FB6DE
:10050000F894DEBF0FBECDBF182F81E1E3E3F1E029
:10051000DE01119601900D928A95E1F78DE291E04E
:100520000E946C028091C00085FFFCCF812F8295D4
:100530008F70FE013196E80FF11D80818093C60017
:100540008091C00085FFFCCF1F70FE013196E10F46
:10055000F11D80818093C60080E391E061960FB623
:10056000F894DEBF0FBECDBFDF91CF911F910C94E9
:100570006C020E94C2058091F701823010F00E9447
:100580009E210E94A203F5CFCF93DF9300D000D02D
:1005900000D00F92CDB7DEB77E018FEFE81AF80AD0
:1005A000EE82FF82E0912302F0912402B08000E00D
:1005B00010E0B11429F00580F681E02D0081118151
:1005C0000E944C090E9452096C0180911B0290917B
:1005D0001C02C816D90608F046C00E942E1AC09206
:1005E0001B02D0921C020E946B0AD701E5E01D920B
:1005F000EA95E9F740E050E06E817F8180911F022B
:10060000909120020E947516811561F2898187FD03
:10061000F1CF0C811D81D8011A968D919D91892B66
:1006200021F0C80102960E9472190E9452096C01C1
:1006300080911B0290911C02C816D90610F40E94EA
:100640002E1AC0921B02D0921C02E981E150E930BF
:1006500088F6FE2FFF0FFF0BEF58FB4DD801529687
:100660008C910C943823C0921B02D0921C02B114BE
:1006700051F0C016D10670F00E946B0AB601C80195
:100680000E94F219B2CFE0912102F091220241E0E2
:100690008081811140E0B8016C197D0980911F02B1
:1006A000909120020E94F5180E946B0A81119DCF43
:1006B0000E949E219ACF8160F801828B2A813B8122
:1006C00064857585620F731FA601C8010E94961983
:1006D000811509F48FCFD80152968C91529782FFE1
:1006E00012C06A817B811C968D919D91680F791F44
:1006F000A601C8010E94C019D8015096ED91FD9144
:10070000C801099577CF8E7FF801828BF5CF816084
:10071000D80152968C936A817B8116976D937D9355
:100720006C0D7D1D9601A601C8010E94961962CF2D
:1007300081FD04C0C8010E9475215CCF8E7FF80145
:10074000828B58CF8FE380937E0080B7877F80BFF6
:1007500080B7806880BF83B7817F83BF0FB6F8946E
:100760000F9283B7816083BF85B7806685BF8F7D19
:1007700085BF0F900FBE889513BE0895FFCFA89533
:1007800088E190EC0FB6F894A895809360000FBEB6
:1007900090936000089510923B0210923C020895DD
:1007A000429FC001439F900D529F900D112468EE0F
:1007B00073E00E94EE2280913B0290913C02680F10
:1007C000791F22E6269FC001279F900D112464E621
:1007D00070E00E940223CB0160933B0290933C02A5
:1007E00008959C01261B370B4AE5429FC001439F99
:1007F000900D112461E07FEF0E9402238AE5860FAD
:100800000895282FCB016CE97FEF0E940223CB01D2
:10081000820F911D853B910514F084EB089597FD9F
:1008200080E008959C01261B370B1AF49B01281BBE
:10083000390B44E6429FC001439F900D11246FEF96
:1008400070E00E940223862F08954832510598F4E3
:100850008A30910518F46A30710550F09C01261B0E
:10086000370B1AF49B01281B390B2B303105D4F4BC
:1008700081E591E00895E1F38A30910518F46A303A
:10088000710568F09C01261B370B1AF49B01281B8D
:10089000390B2B30310564F386E791E008958DE53F
:1008A00091E0089589E691E00895CF92DF92EF926A
:1008B000FF920F931F93CF93DF9300D000D0CDB75B
:1008C000DEB72B833C8396010E94D00389839A83F1
:1008D000CB80DC80C01AD10AA701B8018B819C8132
:1008E0000E9425040E946C0285E891E00E946C023F
:1008F0009601D7FE05C098018B819C81281B390B7E
:1009000044E6429FC001439F900D11246FEF70E0B9
:100910000E940223862F0E9479022AE52C9DC001A5
:100920002D9D900D112461E07FEF0E940223260F80
:1009300089819A816CE97FEF0E940223CB01820FAB
:10094000911D853B910574F084EB0F900F900F90F3
:100950000F90DF91CF911F910F91FF90EF90DF905B
:10096000CF90089597FFF1CF80E0EFCF0E94E7018D
:1009700060E875E280E090E00E9457022FEF81EE80
:1009800094E0215080409040E1F700C0000040E03A
:100990006BE688E60E9419020E94770181E00E94BE
:1009A000D9158093B2019093B30140E06EE085E0E9
:1009B0000E940D158093B0019093B101E12CF12CB0
:1009C00002E0970140E051E06FE171E08FED90E0CF
:1009D0000E94EC0501E0970140E051E066E271E021
:1009E0008DE991E00E94EC050E94F508FFCF0F937E
:1009F0001F93CF93DF9300D000D000D00F92CDB7DC
:100A0000DEB78E839F836D830091C2011091C30175
:100A10002091E3013091E40129833A838091E1013F
:100A20009091E2018B839C838091B4019091B501F8
:100A300002960E9472192E813F812F3F3F4F09F08D
:100A400040C09D819115E9F1E091C601F091C70187
:100A5000A091B401B091B5011496ED93FD93A091CE
:100A6000B401B091B5018481958116968D939D93C3
:100A70008091B4019091B501A481B581029612963E
:100A80008D939D938091B4019091B50102968483DA
:100A90009583E091B401F091B50185EC91E08287F6
:100AA00093878091C5018F5F8093C50127960FB60C
:100AB000F894DEBF0FBECDBFDF91CF911F910F9194
:100AC00008952E813F81200F311F2E833F83E091B7
:100AD000B401F091B501228333836091B401709128
:100AE000B5016E5F7F4F2017310770F48B819C81B9
:100AF00027960FB6F894DEBF0FBECDBFDF91CF9122
:100B00001F910F910C94421989819A810E94421978
:100B10008091B9019091BA012E813F812817390740
:100B200028F63093BA012093B901C0CFFC01828529
:100B30009385855C914061F48489958921E0883DA5
:100B4000920731F0892B21F497A581E0913009F4C7
:100B500080E00895E091E301F091E401808181114A
:100B600007C08FEF9FEF9093BA018093B90108956A
:100B7000E091E301F091E4010580F681E02D8081B0
:100B80009181F1CFCF93DF938091CE01811103C08A
:100B9000DF91CF9108950FB6F8940F92E091D401B0
:100BA000F091D501C681D781CE0102960E947219BB
:100BB0008091C40181508093C4018091CE01815005
:100BC0008093CE010F900FBE8F89988D0E94752162
:100BD000CE010E947521D8CF8F929F92AF92BF9283
:100BE000CF92DF92EF92FF920F931F93CF93DF93F9
:100BF00000D000D000D00F92CDB7DEB789839A83A2
:100C00006B015A012B833C830D83CA010E945D2135
:100C10008C01892BA1F48FEF27960FB6F894DEBFD5
:100C20000FBECDBFDF91CF911F910F91FF90EF903D
:100C3000DF90CF90BF90AF909F908F90089580E30A
:100C400090E00E945D214C01892B09F4D7C080E31C
:100C5000D4011D928A95E9F7F401078B108FA50145
:100C600065EA70E0C8010E946824C5010197D401BB
:100C70005796AD90BD90A80EB91EC114D10409F0CD
:100C8000C1C0DD80F4E0DF1610F023E0D22ED401E5
:100C90005696DC925396DC9284010E5F1F4FC8017A
:100CA0000E941F19C4010C960E941F19F40180862E
:100CB000918684E090E08D19910984879587828AD6
:100CC000938A4B815C8169817A81C5010E9486216A
:100CD000D4018D939D93E114F10419F0F701808202
:100CE00091820FB6F8940F928091C4018F5F809328
:100CF000C4018091B4019091B501892B09F094C091
:100D00009092B5018092B4018091C401813089F53F
:100D100087EFE82E81E0F82E9BE1C92E92E0D92ED4
:100D2000C7010E941119F9E0EF0EF11CCE14DF0487
:100D3000B9F78EEE91E00E94111985EE91E00E94C4
:100D4000111988ED91E00E9411198FEC91E00E9439
:100D5000111985EC91E00E9411198EEE91E09093AB
:100D6000E4018093E30185EE91E09093E2018093AA
:100D7000E1018091BB018F5F8093BB01F401A689E3
:100D80008091C1018A1710F4A093C10129E02A9F24
:100D9000D0011124A950BE4F11960D90BC91A02DE9
:100DA000F401A483B58314968D919D9186839783D6
:100DB0009E918E91FC01028313830D931D93D401A8
:100DC00056968C91289FF0011124E950FE4F1C97F4
:100DD000ED93FD9380818F5F80830F900FBE809194
:100DE000C001811549F0E091B401F091B5019689F7
:100DF000F4018689981760F181E00ECFC8010E9446
:100E0000752109CFF601D40159969601205F3F4F15
:100E100080818C93811529F031961196E217F307A2
:100E2000B9F7F40110A62DCF8091C0018111A1CF97
:100E3000E091B401F091B5018689D40156969C9158
:100E4000981708F496CF9092B5018092B40191CF93
:100E50000E949E21D1CF0F931F93CF93DF93EC017C
:100E60000FB6F8940F92892B21F4C091B401D09160
:100E7000B5018E010E5F1F4FC8010E9472198C8947
:100E80009D89892B21F0CE010C960E9472198091C8
:100E9000BB018F5F8093BB018091B4019091B5013C
:100EA0002091C001211559F18C179D0741F5B8011A
:100EB0008FEC91E00E9423198091CE018F5F809387
:100EC000CE0181E00F900FBE813039F08F89988D6F
:100ED0000E947521CE010E9475218091C00181156B
:100EE00049F08091B4019091B5018C179D0711F4E0
:100EF0000E949E21DF91CF911F910F9108958091C3
:100F0000C40181508093C4010E94AA0580E0DACF19
:100F10000FB6F8940F92009721F48091B40190914C
:100F2000B501FC0186890F900FBE0895009721F44A
:100F30008091B4019091B501FC01868908950FB6A6
:100F4000F8940F92009721F48091B4019091B5012B
:100F5000FC0181A50F900FBE0895009721F48091A8
:100F6000B4019091B501FC0181A50895EF92FF9223
:100F70001F93CF93DF93EC01643008F063E00FB66A
:100F8000F8940F92209721F4C091B401D091B5014B
:100F900099A5961709F46AC088F42091B40130919C
:100FA000B5012C173D0741F0E091B401F091B50176
:100FB00011E08689861750F010E008C02091B40136
:100FC0003091B50111E02C173D07B1F78E899817C4
:100FD00011F0861708F46E8B69A72C853D8537FDC7
:100FE00006C024E030E0261B31092C873D8729E02C
:100FF000829FC001112489509E4F2A853B85281766
:10100000390789F57E0182E0E80EF11CC7010E94D4
:101010007219AE898091C1018A1710F4A093C101A1
:1010200029E02A9FD0011124A950BE4F11960D909E
:10103000BC91A02DAC83BD8314968D919D918E8320
:101040009F839E918E91FC01E282F382ED92FD924C
:101050008E89289FF0011124E950FE4FEA87FB8713
:1010600080818F5F808311110E949E210F900FBE9F
:10107000DF91CF911F91FF90EF9008950F931F93F1
:10108000CF93DF93EC018091B4019091B5018C175F
:101090009D0709F447C0209709F444C00FB6F8949F
:1010A0000F92CE010E9496058115D1F18E010E5F3F
:1010B0001F4FC8010E947219AE898091C1018A1721
:1010C00010F4A093C10129E02A9FD0011124A95056
:1010D000BE4F11960D90BC91A02DAC83BD8314968C
:1010E0008D919D918E839F839E918E91FC010283B1
:1010F00013830D931D938E89289FF0011124E950CD
:10110000FE4FEA87FB8780818F5F8083E091B40187
:10111000F091B50196898E89981710F40E949E214E
:101120000F900FBEDF91CF911F910F910895EF9215
:10113000FF921F93CF93DF93EC010E949605182F27
:10114000811509F450C08091B601811145C0E0912C
:10115000B401F091B5018E8996899817D8F581E090
:101160008093BD017E0182E0E80EF11CC7010E9460
:101170007219AE898091C1018A1710F4A093C10140
:1011800029E02A9FD0011124A950BE4F11960D903D
:10119000BC91A02DAC83BD8314968D919D918E83BF
:1011A0009F839E918E91FC01E282F382ED92FD92EB
:1011B0008E89289FF0011124E950FE4FEA87FB87B2
:1011C00080818F5F8083812FDF91CF911F91FF906E
:1011D000EF90089510E0C6CFBE01645F7F4F88EDA9
:1011E00091E00E94231910E0EECFEF92FF920F934F
:1011F000CF93DF93CDB7DEB760970FB6F894DEBF1D
:101200000FBECDBFA4E4B1E0FE013196BF018D91C8
:1012100081938111FCCF87EBE82E81E0F82E00E06E
:1012200020E030E04CE550E089EB92E00E94EC05D4
:10123000813099F40E94751A813079F4F8942FEF77
:101240003FEF3093BA012093B9018093C00110920F
:10125000C3011092C2010E94AD22809108016096E4
:101260000FB6F894DEBF0FBECDBFDF91CF910F91C7
:10127000FF90EF9008950E943A1B0E942B078091E7
:10128000B7019091B8010E942B070E94C205F89403
:101290001092C0010C9492218091B6018F5F8093CF
:1012A000B60108950FB6F8940F928091C201909103
:1012B000C3010F900FBE08958091C2019091C301A8
:1012C00008958091C4010895009721F48091B4019C
:1012D0009091B50149960895EF92FF920F931F9355
:1012E000CF93DF938091B6018111EAC0C091C20112
:1012F000D091C30121967E01D093C301C093C20156
:10130000CD2BB9F48091E3019091E4012091E101AA
:101310003091E2013093E4012093E3019093E201E4
:101320008093E1018091BC018F5F8093BC010E949A
:10133000AA058091B9019091BA01E816F90608F45E
:10134000BDC090E069E0E091E301F091E4018081AB
:10135000811125C02FEF3FEF3093BA012093B901DF
:10136000E091B401F091B5013091BD01E689D9E079
:10137000ED9FF0011124E950FE4F81E020812230E1
:1013800008F480E021E0311101C020E0822B892B9C
:10139000DF91CF911F910F91FF90EF900895E09111
:1013A000E301F091E4010580F681E02D0680F781EC
:1013B000E02D22813381E216F30670F2C285D385D7
:1013C0002481358146815781D90114964D935D93CF
:1013D0002681378144815581D90112964D935D93C1
:1013E0009F012E5F3F4F49815A814217530721F4D5
:1013F0004681578149835A8312861386888181509A
:101400008883A489B589109719F146855785008985
:101410001189EA010C831D8340895189068517854E
:10142000EA010A831B8311960D911D911397AF0159
:10143000445F5F4F0417150731F4408951891196B5
:101440004D935D931397148A158A8C9181508C93D8
:10145000A6898091C1018A1710F4A093C1016A9FE7
:10146000D0011124A950BE4F11960D90BC91A02D12
:10147000A483B58314964D915D91468357835E9105
:101480004E91EA012A833B832D933D93A6896A9F5F
:10149000D0011124A950BE4FA287B3878C918F5FD2
:1014A0008C93A091B401B091B50181E02689569644
:1014B0003C91321708F080E0982B45CF90E050CF58
:1014C0008091BE019091BF0101969093BF018093DE
:1014D000BE0180E05DCF1F93CF93DF930FB6F894EA
:1014E0000F928091B60181508093B6018091B60130
:1014F000811539F080E00F900FBEDF91CF911F91E1
:1015000008958091C4018115A9F3E0E0F0E039E08D
:1015100041E07EC0E091DD01F091DE010680F781BF
:10152000E02DA489B589C685D785808991898C836A
:101530009D83C089D189868597858A839B83CF01C6
:101540000C9611966D917D9113976817790731F478
:101550008089918911968D939D931397148A158A8A
:101560008C9181508C93A285B385C481D58186816D
:1015700097818C839D83C681D781848195818A835D
:101580009B83CF01029611966D917D9113976817F9
:10159000790731F46681778111966D937D93139766
:1015A000128613862C9121502C93A6892091C1017B
:1015B0002A1710F4A093C1013A9FD0011124A95019
:1015C000BE4F11960D90BC91A02DA483B5831496A7
:1015D0006D917D9166837783DE91CE918A839B8323
:1015E0008D939D93A6893A9FD0011124A950BE4F97
:1015F000A287B3878C918F5F8C93A091B401B09137
:10160000B501868956969C91981710F44093BD01B8
:101610008091D80181117ECFEF2B11F00E94AA0595
:10162000C091BE01D091BF01209761F011E00E94EE
:101630006C0981111093BD012197C9F71092BF0168
:101640001092BE018091BD01811509F453CF8091A4
:10165000B4019091B5010E949E2181E04CCFCF93BF
:10166000DF9300D000D0CDB7DEB78B839C83698336
:101670007A830E944C092091C2013091C301EB8111
:10168000FC814081518189819A81840F951F2417A3
:101690003507A0F484179507A0F080839183198201
:1016A0000E946B0A811102C00E949E2189810F90C5
:1016B0000F900F900F90DF91CF91089584179507A9
:1016C00030F02817390718F0EB81FC81E6CFEB8169
:1016D000FC818083918360E0821B930B0E94F7045E
:1016E000F1E0F983DDCFCF93DF93EC01892B29F46F
:1016F0000E949E21DF91CF9108950E944C0960E0E5
:10170000CE010E94F7040E946B0A811589F3F2CF83
:10171000CF93DF9300D0CDB7DEB789839A830E9441
:101720004C090FB6F8940F928091BE019091BF01C1
:1017300029813A81820F931F9093BF018093BE014C
:101740000F900FBE0F900F90DF91CF910C946B0A0A
:101750008091B601811521F081E08093BD0108954B
:101760001092BD018091C10199E0899F90011124DF
:10177000D901A950BE4F9C91911509F11196ED9197
:10178000FD910280F381E02DFE93EE931197265098
:101790003E4FE217F30731F41596ED91FD91169740
:1017A000ED93FD93268137813093B5012093B401E9
:1017B0008093C1018091B4019091B5010895815049
:1017C000D3CF0F931F93CF93DF93EC010FB6F89411
:1017D0000F92892B21F4C091B401D091B5018E01F3
:1017E0000E5F1F4FC8010E9472198C899D89892B39
:1017F00021F0CE010C960E947219B80185EC91E09F
:101800000E9423198FA5813009F41FA60F900FBEE7
:101810008091C001811539F00FB6F8940F920E94A3
:10182000AA050F900FBE8091B4019091B5018C175D
:101830009D0731F48091C001811539F00E949E21ED
:10184000DF91CF911F910F9108959091C4018091E4
:10185000C501981305C01092B5011092B401F0CFE4
:10186000DF91CF911F910F910C94A80BCF93DF9331
:1018700000D0CDB7DEB769837A836091B4017091EF
:10188000B501645F7F4F0E94421961E089819A81AE
:101890000F900F90DF91CF910C94F704CF93DF93CB
:1018A000FC01A091B401B091B50170681C966D93D4
:1018B0007D93A181B2818091B4019091B501EC0139
:1018C000AE87BF878091B4019091B50114962D9198
:1018D0003D91EC01288B398B2091B4013091B501F9
:1018E0009E918E91245F3F4FEC012A833B83209190
:1018F000B4013091B501245F3F4F2D933D93A091EA
:10190000B401B091B5015496ED93FD9390819F5F22
:10191000908361E0CA01DF91CF910C94F7040F939B
:101920001F93CF93DF93FC018B01A181B281809142
:10193000B4019091B501EC01AE87BF878091B401ED
:101940009091B50114962D913D91EC01288B398B26
:101950002091B4013091B5019E918E91245F3F4F4B
:10196000EC012A833B832091B4013091B501245FBF
:101970003F4F2D933D93A091B401B091B501549682
:10198000ED93FD9390819F5F9083411511F00FEFD0
:101990001FEF642FC801DF91CF911F910F910C941D
:1019A000F704CF93DF93DC011596ED91FD9106804E
:1019B000F781E02DA489B5898685978520893189AD
:1019C000EC012C833D838089918926853785EC0144
:1019D0002A833B83CF010C9611962D913D9113974D
:1019E0002817390731F42089318911962D933D93B9
:1019F0001397148A158A2C9121502C932091B601AB
:101A000021115EC0A285B3858481958126813781AD
:101A1000EC012C833D838681978124813581EC0103
:101A20002A833B839F012E5F3F4F11968D919D919D
:101A300013978217930731F48681978111968D93BE
:101A40009D931397128613868C9181508C9386896F
:101A50009091C101981710F48093C101A9E0A89F4B
:101A6000C001112489509E4FEC0189819A818483A1
:101A70009583EC014C815D81468357834C815D8168
:101A8000EA012A833B83EC012C833D838689A89F4E
:101A9000D0011124A950BE4FA287B3878C918F5FCC
:101AA0008C93A091B401B091B501868956969C9112
:101AB000981710F581E08093BD01DF91CF910895D3
:101AC000A091D901B091DA01A687B78714962D911C
:101AD0003D91208B318B3E912E91E9018A839B832E
:101AE0008D939D9388ED91E0848B958B8091D801A7
:101AF0008F5F8093D801D5CF80E0DFCFCF93DF9386
:101B0000DC0170686D937D931496ED91FD914D917C
:101B10005D9118972D913D918D919D91E9018C8357
:101B20009D839E918E911497EC012A833B83EA0159
:101B300029813A812A173B0711F489839A831896E1
:101B40001D921D92DA018C9181508C93A285B385F0
:101B5000C481D581868197818C839D83C681D781FD
:101B6000848195818A839B839F012E5F3F4F1196CD
:101B70008D919D9113978217930731F486819781F8
:101B800011968D939D931397128613868C91815095
:101B90008C9386899091C101981710F48093C101AC
:101BA00069E0689FC001112489509E4FEC01898132
:101BB0009A8184839583DC0114964D915D914683CF
:101BC0005783DE91CE912A833B832D933D93868963
:101BD000689FD0011124A950BE4FA287B3878C9172
:101BE0008F5F8C93A091B401B091B5018689569610
:101BF0009C91981718F481E08093BD01DF91CF91FB
:101C000008950FB6F8940F922091BC01FC01208337
:101C10002091C2013091C301218332830F900FBE06
:101C200008952091BC01FC0120832091C2013091D4
:101C3000C301218332830895CF93DF93FB010FB655
:101C4000F8940F926091C2017091C301208131819B
:101C50002F3F320719F1DC0111964D915D91A09152
:101C6000BC01EC01B881BA1759F06417750740F050
:101C70001082118281E00F900FBEDF91CF91089505
:101C8000DB01A41BB50BA217B30790F7261B370B7C
:101C9000240F351F208331830E94110E80E0EBCF8B
:101CA00081E08093BD010895009721F48091B401F3
:101CB0009091B501DC015796ED91FD9180E090E0A7
:101CC0002081253A09F0089531960196F9CF809147
:101CD000B4019091B5010895811105C08091B401BE
:101CE0009091B501089580E090E008958091C00141
:101CF000811539F09091B60181E0911180E0880F53
:101D0000089581E008950F931F93CF93DF93EC0123
:101D1000892B09F46EC08E89E091B401F091B50170
:101D20009689891708F05CC02C853D8537FD0BC06E
:101D3000E091B401F091B501968924E030E0291BCF
:101D400031092C873D8729E0829FC00111248950E9
:101D50009E4F2A853B8528173907D9F58E010E5FDE
:101D60001F4FC8010E947219E091B401F091B501B2
:101D7000A689AE8B8091C1018A1710F4A093C1018E
:101D800029E02A9FD0011124A950BE4F11960D9031
:101D9000BC91A02DAC83BD8314968D919D918E83B3
:101DA0009F839E918E91FC01028313830D931D935B
:101DB0008E89289FF0011124E950FE4FEA87FB87A6
:101DC00080818F5F808381E0DF91CF911F910F91A0
:101DD0000895E091B401F091B50186898E8BF3CF1F
:101DE000E091B401F091B50181E029A59689291708
:101DF00058F380E0E9CF0F931F93CF93DF93EC016B
:101E0000892B31F480E0DF91CF911F910F910895DC
:101E10008AA581508AA72E8999A5291799F381113E
:101E2000F1CF8E010E5F1F4FC8010E947219E9A504
:101E3000EE8B84E090E08E1B91098C879D878091CA
:101E4000C1018E1710F4E093C10189E08E9FF0016B
:101E50001124E950FE4F0180F281E02DEC83FD83D7
:101E6000248135812E833F83A481B58112960D9301
:101E70001D93048315839E89899FF0011124E950E5
:101E8000FE4FEA87FB8780818F5F808381E0BBCF35
:101E90000F931F93CF93DF93EC01892B09F452C06A
:101EA00099A5961708F4962F8E89891709F44AC0C8
:101EB0002AA5213009F046C09E8B2C853D8537FD33
:101EC00006C024E030E0291B31092C873D8729E03A
:101ED000829FC001112489509E4F2A853B85281777
:101EE000390781F58E010E5F1F4FC8010E947219DC
:101EF000AE898091C1018A1710F4A093C10129E035
:101F00002A9FD0011124A950BE4F11960D90BC916B
:101F1000A02DAC83BD8314968D919D918E839F835C
:101F20009E918E91FC01028313830D931D938E89E4
:101F3000289FF0011124E950FE4FEA87FB8780813A
:101F40008F5F8083DF91CF911F910F910895E09172
:101F5000B401F091B50184859585A091B401B0914B
:101F6000B501E091B401F091B50156964C9124E091
:101F700030E0241B31092487358708958091B4010E
:101F80009091B501009721F0FC0122A52F5F22A7B7
:101F90000895EF92FF920F931F93CF93DF9300D09A
:101FA0000F92CDB7DEB7082F69837A010E944C09E2
:101FB0000FB6F8940F92E091B401F091B50184E06E
:101FC000089F900111242A833B83E20FF31F83A50E
:101FD00094A5A5A5B6A5892B8A2B8B2B61F4E0913E
:101FE000B401F091B501E00FF11D81E087A711E088
:101FF000E114F10409F410E00F900FBE113021F448
:1020000061E0C7010E94F7040E946B0A113021F4BD
:10201000811102C00E949E210FB6F8940F92E091A8
:10202000B401F091B5012A813B81E20FF31F63A552
:1020300074A585A596A500977040604079F0398118
:10204000E091B401F091B5013115D9F02A813B81BD
:10205000E20FF31F13A614A615A616A6E091B4016D
:10206000F091B501E00FF11D17A60F900FBE0F9074
:102070000F900F90DF91CF911F910F91FF90EF90F4
:1020800008952A813B81E20FF31F9B01AC0121508F
:1020900031094109510923A734A745A756A7DECF27
:1020A000CF92DF92EF92FF920F931F93CF93DF9324
:1020B000CDB7DEB729970FB6F894DEBF0FBECDBF00
:1020C000898749835A836B837C830D831E832F8387
:1020D00038870E944C090FB6F8940F92E091B40132
:1020E000F091B5012985E20FF11D87A5823051F1EC
:1020F000E091B401F091B50134E0239FC0011124B7
:10210000E80FF91F43A554A565A576A589819A8195
:10211000AB81BC8180959095A095B0958423952343
:10212000A623B72383A794A7A5A7B6A7E091B401D8
:10213000F091B501E20FF11D81E087A711E0C11414
:10214000D10409F410E00F900FBE113021F461E0CA
:10215000C6010E94F7040E946B0A113021F481111C
:1021600002C00E949E210FB6F8940F92E114F10470
:10217000A1F0E091B401F091B501398524E0329FDE
:10218000C0011124E80FF91F83A594A5A5A5B6A544
:10219000F70180839183A283B383E091B401F0912E
:1021A000B5012985E20FF11D87A58230C1F5E091C7
:1021B000B401F091B50134E0239FC0011124E80F70
:1021C000F91F43A554A565A576A58D819E81AF8194
:1021D000B88580959095A095B09584239523A623E6
:1021E000B72383A794A7A5A7B6A781E0E091B40180
:1021F000F091B5019985E90FF11D17A60F900FBE5B
:1022000029960FB6F894DEBF0FBECDBFDF91CF91F8
:102210001F910F91FF90EF90DF90CF90089580E095
:10222000E5CF8F929F92AF92BF92EF92FF920F9362
:102230001F93CF93DF93DC010FB6F8940F92E11454
:10224000F10481F074E0679FC00111248A0F9B1F85
:10225000EC018BA49CA4ADA4BEA4F7018082918262
:10226000A282B382FD01E60FF11D87A592E097A738
:102270000330110509F4ADC008F07AC00130110532
:1022800009F481C00230110509F490C0813009F0D1
:1022900061C01A96ED91FD9118978D919D912D91A8
:1022A0003D91EC012C833D839E918E913E912E9128
:1022B0001497EC012A833B839D012E5F3F4F818160
:1022C00092818217930731F416968D919D911897FC
:1022D000818392831A961D921D9280818150808302
:1022E0001A968C9156979091C101981710F480938B
:1022F000C101E9E0E89FC001112489509E4FEC0123
:1023000089819A8114968D939D93EC014C815D8116
:102310004D935D934C815D81EA012A833B83EC01FF
:102320002C833D831E968C91E89FF0011124E95087
:10233000FE4F1C97ED93FD9380818F5F8083E0912A
:10234000B401F091B50196891A968C91981710F402
:102350000E949E2181E00F900FBEDF91CF911F91CF
:102360000F91FF90EF90BF90AF909F908F90089546
:102370000430110509F08ACF8230B1F1D4E06D9FAD
:10238000F00111242AC074E0679FF0011124EA0FC4
:10239000FB1FE3A4F4A405A516A5E22AF32A042B47
:1023A000152BE3A6F4A605A716A770CF94E0699FA6
:1023B000F0011124EA0FFB1F43A554A565A576A5DE
:1023C0004F5F5F4F6F4F7F4F43A754A765A776A717
:1023D0005DCFC4E06C9FF0011124EA0FFB1F23A71F
:1023E00034A745A756A752CF80E0B5CFCF92DF9252
:1023F000EF92FF920F931F93CF93DF93FC01E114B1
:10240000F10481F074E0679FC00111248E0F9F1FBB
:10241000EC018BA59CA5ADA5BEA5E701888399839A
:10242000AA83BB83DF01A60FB11D9F968C9192E01A
:102430009C930330110509F4B0C008F07AC0013054
:10244000110509F482C00230110509F492C08130EF
:1024500009F065C08091B6018111ABC0A285B3853A
:102460008481958126813781EC012C833D8386818F
:10247000978124813581EC012A833B839F012E5F64
:102480003F4F11968D919D9113978217930731F4C9
:102490008681978111968D939D931397128613864B
:1024A0008C9181508C9386899091C101981710F47A
:1024B0008093C101A9E0A89FC001112489509E4FBB
:1024C000EC0189819A8184839583EC014C815D8143
:1024D000468357834C815D81EA012A833B83EC016B
:1024E0002C833D838689A89FD0011124A950BE4F1B
:1024F000A287B3878C918F5F8C93A091B401B09128
:10250000B501868956969C91981748F4C114D10458
:1025100019F081E0F601808381E08093BD0181E0C4
:10252000DF91CF911F910F91FF90EF90DF90CF90AF
:1025300008950430110509F08ACF823009F457C09C
:10254000C4E06C9FD00111242CC0D4E06D9FD00159
:102550001124AE0FBF1F9B96ED90FD900D911D9124
:10256000E22AF32A042B152B1E930E93FE92EE9271
:102570006ECF74E0679FD0011124AE0FBF1F9B96F2
:102580004D915D916D917D914F5F5F4F6F4F7F4F8B
:102590007E936E935E934E935ACF94E0699FD001E1
:1025A0001124AE0FBF1F9F965E934E933E932E93C2
:1025B0004ECFA091D901B091DA01A687B7871496C2
:1025C0008D919D91808B918B3E912E91CF010C9698
:1025D000E9018A839B838D939D9388ED91E0848BA1
:1025E000958B8091D8018F5F8093D80186CF80E052
:1025F00097CFCF93DF93FC01DC01A60FB11D9F960F
:102600002C9182E08C9384E0689FD0011124AE0F5E
:10261000BF1F9B966D917D918D919D916F5F7F4FB7
:102620008F4F9F4F9E938E937E936E93213009F030
:1026300065C08091B601811164C0A285B385848193
:10264000958126813781EC012C833D83868197819A
:1026500024813581EC012A833B839F012E5F3F4F0C
:1026600011968D919D9113978217930731F486816E
:10267000978111968D939D931397128613868C9153
:1026800081508C9386899091C101981710F48093A2
:10269000C101A9E0A89FC001112489509E4FEC01FF
:1026A00089819A8184839583EC016C817D81668325
:1026B00077836C817D81EB012A833B83EC012C8342
:1026C0003D838689A89FD0011124A950BE4FA287BF
:1026D000B3878C918F5F8C93A091B401B091B501B9
:1026E000868956969C91981748F44115510519F022
:1026F00081E0FA01808381E08093BD01DF91CF9179
:102700000895A091D901B091DA01A687B7871496F0
:102710008D919D91808B918B3E912E91CF010C9646
:10272000E9018A839B838D939D9388ED91E0848B4F
:10273000958B8091D8018F5F8093D801CDCF009782
:1027400021F48091B4019091B5010FB6F8940F92E5
:10275000FC01E60FF11D87A5823029F417A681E060
:102760000F900FBE089580E0FBCFCF92DF92EF92E3
:10277000FF92009721F48091B4019091B5010FB6BA
:10278000F8940F9274E0679FF0011124E80FF91F8D
:1027900063A574A585A596A5C3A4D4A4E5A4F6A4B1
:1027A0002095309540955095C222D322E422F522FF
:1027B000C3A6D4A6E5A6F6A60F900FBEFF90EF9095
:1027C000DF90CF9008951092B5011092B40110924D
:1027D000CE011092C4011092C3011092C201109256
:1027E000C1011092C0011092BF011092BE0110925F
:1027F000BD011092BC011092BB011092BA0110925F
:10280000B9011092B60108950FB6F8940F92FC0129
:10281000928D0F900FBE81E0911180E008950F938B
:102820001F93CF93DF93EC01042F1A8D4C8D411130
:1028300013C088819981892B11F080E006C08C81BA
:102840009D810E94FB0E1C821D821F5F1A8FDF91EB
:10285000CF911F910F91089550E0011115C08A8109
:102860009B810E945F242C8D8A819B81820F911D08
:102870008A839B832C813D8182179307F0F28881A4
:1028800099818A839B83D9CF8E819F810E945F2407
:102890008C8D90E02E813F81281B390B2E833F8346
:1028A000488159812417350730F42C813D81281B3C
:1028B000390B2E833F83023009F0BFCF81E0111125
:1028C00001C080E0181BB9CFFC019B01948D9115CC
:1028D000A1F0492F50E066817781690F711D6683F1
:1028E0007783848195816817790720F060817181F1
:1028F00066837783C9010C945F2408951F93CF9357
:10290000DF9300D000D0CDB7DEB78B839C830FB6AA
:10291000F8940F92FC01168D7196E983FA831116D3
:102920002CF4EB81FC818189811122C08FEFEB8136
:10293000FC81868F0F900FBE0FB6F8940F92158D05
:102940003896E983FA8311162CF4EB81FC8180859B
:10295000811117C08FEFEB81FC81858F0F900FBE27
:102960000F900F900F900F90DF91CF911F910895CE
:1029700089819A810E94D10C81110E94500E1150C0
:10298000CECF89819A810E94D10C81110E94500E74
:102990001150D9CFCF93DF93EC0180E0209789F1DC
:1029A0008B8D811571F10FB6F8940F928881998102
:1029B0002B8D4C8DFC01249FE00DF11D1124EC8327
:1029C000FD831A8E8A839B832150330B429FF00133
:1029D000439FF00D11248E0F9F1F8E839F838FEFD7
:1029E0008D8F8E8F611110C08885811539F0CE01D1
:1029F00008960E94D10C81110E949E210F900FBE5B
:102A000081E0DF91CF910895CE0108960E941119BF
:102A1000CE0141960E941119F1CF0F931F93CF93CE
:102A2000DF93082F162F811108C0C0E0D0E0CE013F
:102A3000DF91CF911F910F910895869FC0011124BE
:102A40004F960E945D21EC01009779F34F9611118A
:102A500001C0CE01888399830B8F1C8F61E0CE016A
:102A60000E94CA14E4CFCF93C62F811561F0861758
:102A700050F042E060E00E940D15009711F0FC015B
:102A8000C28FCF91089580E090E0FBCF0F931F930A
:102A9000CF93DF93CDB7DEB72A970FB6F894DEBF9A
:102AA0000FBECDBF8C016F8378874C835D832E83EF
:102AB00080E09801285F3F4F29873A870FB6F89446
:102AC0000F92F801228D938D2917F8F44E816F81B2
:102AD0007885C8010E940F14F8019189911521F0A1
:102AE000C80141960E94D10C81110E949E210F9035
:102AF0000FBE81E02A960FB6F894DEBF0FBECDBFA1
:102B0000DF91CF911F910F910895FE81F230F1F284
:102B10002C813D81232B21F40F900FBE80E0EACF62
:102B2000811104C0CE0101960E94110E0F900FBEBC
:102B30000E944C090FB6F8940F92F801858D8F3FD3
:102B400009F4158EF801868D8F3F09F4168E0F90CB
:102B50000FBEBE016C5F7F4FCE0101960E941C0E1E
:102B6000811121C00FB6F8940F92F801928D838DD8
:102B70000F900FBE981311C06C817D8189859A8555
:102B80000E94360CC8010E947E140E946B0A8111BB
:102B900002C00E949E2181E091CFC8010E947E1454
:102BA0000E946B0AF8CFC8010E947E140E946B0A33
:102BB000B5CFCF93DF93482F60E081E00E940D15E1
:102BC000EC01009759F01C821D82188219821E8226
:102BD00020E040E050E0BA010E944615CE01DF91AE
:102BE000CF9108950F931F93CF93DF93EC010C8146
:102BF0001D810E94670E0817190799F48E81815074
:102C00008E83811531F081E0DF91CF911F910F917B
:102C1000089520E040E050E0BA01CE010E94461540
:102C2000F2CF80E0F1CFEF92FF921F93CF93DF932B
:102C3000EC017A019A8D8B8D981718F080E0223084
:102C4000C1F41E8D8A8D422FCE010E940F141F3FAA
:102C5000B1F48989811561F0CE0141960E94D10CB1
:102C6000811531F0E114F10419F081E0F70180835E
:102C700081E0DF91CF911F91FF90EF9008950E9426
:102C800061091817A8F71F5F1E8FF2CFEF92FF920E
:102C90001F93CF93DF93EC017B018A8D9B8D891766
:102CA00010F51E8D8F5F8A8F1F3FB1F489898115C2
:102CB00061F0CE0141960E94D10C811531F0E114F2
:102CC000F10419F081E0F701808381E0DF91CF9179
:102CD0001F91FF90EF9008950E9461091817A8F7BF
:102CE0001F5F1E8FF2CF80E0F1CFFF920F931F93F3
:102CF000CF93DF93CDB7DEB729970FB6F894DEBF39
:102D00000FBECDBF8C016E837F834C835D8380E0DB
:102D100098012F5E3F4F288739870FB6F8940F929E
:102D2000F801F28CF11409F16E817F81C8010E94D3
:102D30006414FA94F801F28E8085811539F0C80187
:102D400008960E94D10C81110E949E210F900FBE07
:102D500081E029960FB6F894DEBF0FBECDBFDF919C
:102D6000CF911F910F91FF9008952C813D81232BCE
:102D700021F40F900FBE80E0ECCF811104C0CE0192
:102D800001960E94110E0F900FBE0E944C090FB6C3
:102D9000F8940F92F801858D8F3F09F4158EF80194
:102DA000868D8F3F09F4168E0F900FBEBE016C5FAB
:102DB0007F4FCE0101960E941C0E81111CC0C801DC
:102DC0000E940414811589F06C817D818885998524
:102DD0000E94360CC8010E947E140E946B0A811169
:102DE00002C00E949E2181E098CFC8010E947E14FB
:102DF0000E946B0AF8CFC8010E947E140E946B0AE1
:102E0000C8010E940414811571F3B5CFFF920F938E
:102E10001F93CF93DF9300D000D000D00F92CDB797
:102E2000DEB78C016C837D83F12C90E098012F5EDE
:102E30003F4F2E833F830FB6F8940F92D8015A96D6
:102E40008C915A97811541F181505A968C935A97DB
:102E50008D919D91892B29F40E94BE0FF8018483E6
:102E60009583D80118968C91811539F0C801089680
:102E70000E94D10C81110E949E210F900FBE81E013
:102E800027960FB6F894DEBF0FBECDBFDF91CF916E
:102E90001F910F91FF9008952C813D81232B21F4E8
:102EA0000F900FBE80E0ECCF911104C0CE010196CF
:102EB0000E94110E0F900FBE0E944C090FB6F8949D
:102EC0000F92F801858D8F3F09F4158ED8015E961B
:102ED0008C915E978F3F11F45E961C920F900FBEFF
:102EE000BE016C5F7F4FCE0101960E941C0E8111C6
:102EF0002DC0C8010E940414811511F1F8018081D0
:102F00009181892B61F40FB6F8940F92D801149631
:102F10008D919D910E94830EF82E0F900FBE6C81B3
:102F20007D818E819F810E94360CC8010E947E1493
:102F30000E946B0A811102C00E949E2191E07BCF0A
:102F4000C8010E947E140E946B0AF8CFC8010E943B
:102F50007E140E946B0AC8010E940414811571F34B
:102F6000F11409F49FCF0FB6F8940F92F80161891C
:102F7000611531F00688F789E02D808164E0681BD7
:102F8000D80114968D919D910E94480F89CF0F937F
:102F90001F93CF93DF9300D000D0CDB7DEB78B83E4
:102FA0009C8369837A83FC01048115810E94670EEA
:102FB0000817190739F4EB81FC8186818F5F8683BE
:102FC00081E008C069817A818B819C810E9406170B
:102FD0008111F1CF0F900F900F900F90DF91CF9153
:102FE0001F910F910895EF92FF920F931F93CF932C
:102FF000DF9300D000D000D00F92CDB7DEB78C01A8
:103000006E837F834C835D8380E0780191E1E90EDC
:10301000F11C0FB6F8940F92F801928D911521F1E1
:10302000E680F7806E817F81C8010E946414F801F8
:10303000E682F7828189811539F0C80141960E94A4
:10304000D10C81110E949E210F900FBE81E0279626
:103050000FB6F894DEBF0FBECDBFDF91CF911F91A9
:103060000F91FF90EF9008952C813D81232B21F447
:103070000F900FBE80E0EBCF811104C0CE0101960E
:103080000E94110E0F900FBE0E944C090FB6F894CB
:103090000F92F801858D8F3F09F4158EF801868D0A
:1030A0008F3F09F4168E0F900FBEBE016C5F7F4FED
:1030B000CE0101960E941C0E81111BC0C8010E9406
:1030C0000414811581F06C817D81C7010E94360C4A
:1030D000C8010E947E140E946B0A811102C00E94E6
:1030E0009E2181E096CFC8010E947E140E946B0A47
:1030F000F8CFC8010E947E140E946B0AC8010E948A
:103100000414811571F3B6CFEF92FF920F931F93C2
:10311000CF93DF93EC017A010A8D80E00115C1F0B5
:103120001D8DCE010E94641401500A8F1F3FB9F417
:103130008885811561F0CE0108960E94D10C811519
:1031400031F0E114F10419F081E0F701808381E0AE
:10315000DF91CF911F910F91FF90EF9008950E9402
:1031600061091817A0F71F5F1D8FF1CF0F931F93F1
:10317000CF93DF93EC018A8D811541F00E811F8181
:10318000CE010E9464140E831F8381E0DF91CF91F2
:103190001F910F9108950FB6F8940F92FC01828D44
:1031A0000F900FBE08950FB6F8940F92FC01228D78
:1031B000838D821B0F900FBE0895FC01828D0895B0
:1031C0000C947521FC01848D0895FC01838D089574
:1031D000FC01928D81E0911180E00895FC01928DB7
:1031E00081E0238D291380E00895CF93DF93EC01D4
:1031F0000FB6F8940F928D8D8F3F09F41D8E8E8D32
:103200008F3F09F41E8E0F900FBE8A8D811104C06E
:10321000CE0141960E948F0CCE01DF91CF910C948C
:103220007E14FC010396818392832FEF3FEF23836B
:103230003483858396838783908710820895FC0169
:10324000108611860895CF93DF93DC01FB01119660
:103250008D919D91139782839383EC012C813D8105
:10326000248335832C813D81E9016A83FB83EC0152
:103270006C83FD83A087B1878C918F5F8C93DF91E6
:10328000CF910895CF93DF93DC01FB014081518101
:103290009C012D5F3F4F4F3F5407C9F417968D9106
:1032A0009D911997EC012A813B8122833383E901A7
:1032B000EC83FD8384839583EC01EA83FB83A08701
:1032C000B1878C918F5F8C93DF91CF910895C90165
:1032D000E9012A813B81E901688179814617570715
:1032E000B0F7E0CFCF93DF93FC01A085B1852281B9
:1032F000338184819581E9018C839D8384819581CB
:10330000EC012A833B8311962D913D9113972E1743
:103310003F0721F411968D939D9313971086118684
:103320008C9181508C93DF91CF910895FC01628341
:103330007383808791874617570790F0421B530B82
:103340008485958548175907C8F4BF016E5F7F4F84
:1033500080912102909122020E94421980E00895FA
:103360004217530718F46217730740F4BF016E5FEA
:103370007F4F8091230290912402EECF81E0089547
:103380000F931F93CF93DF9300D000D0CDB7DEB75C
:103390008B839C838B0149835A83EB81FC816485F9
:1033A0007585600F711F980149815A81CF010E9474
:1033B0009619811109C00F900F900F900F90DF9117
:1033C000CF911F910F910895AB81BC811C968D9177
:1033D0009D91080F191F1296ED91FD915297CD0105
:1033E0000995DBCFCF93DF9300D000D000D0CDB7CD
:1033F000DEB789839A836B837C83E0912302F0910B
:1034000024020580F681E02D868197818D839E833D
:1034100002960E947219AD81BE8152968C9152978C
:1034200082FF17C04B815C8169817A81CD010E9446
:10343000C019AD81BE815096ED91FD915297CD019D
:103440000F900F900F900F900F900F90DF91CF91F2
:1034500009948E7FED81FE81828BEBCFE091230278
:10346000F0912402808181110DC080912102909100
:1034700022028093230290932402E0932102F0938E
:10348000220208950580F681E02D6FEF7FEF8081A5
:1034900091810E94F219E2CF0FB6F8940F928091B9
:1034A0001F0290912002892BE9F48EE292E00E94A3
:1034B000111985E292E00E9411198EE292E0809348
:1034C00023029093240285E292E08093210290935C
:1034D000220240E065E08AE00E940D1580931F0201
:1034E000909320020F900FBE0895EF92FF920F93DA
:1034F0000E944C1A80911F0290912002892B99F012
:103500008DE1E82E82E0F82E03E020E030E04CE58B
:1035100050E069E471E084EC92E00E94EC050F91C8
:10352000FF90EF90089580E0FACF0F931F93CF9311
:10353000DF93CDB7DEB729970FB6F894DEBF0FBE85
:10354000CDBF89839A836B837C834D832E833F8396
:1035500083E190E00E945D2188879987009701F1BF
:10356000FC01128A0E944C1A89819A81E885F985AA
:10357000808391838B819C81848795878E819F81B5
:1035800086879787008B118BCF0102960E941F19A7
:103590009D81911529F0E885F98582898460828B67
:1035A0008885998529960FB6F894DEBF0FBECDBFEA
:1035B000DF91CF911F910F9108950F931F93CF9398
:1035C000DF9300D000D00F92CDB7DEB720911F025D
:1035D00030912002232B59F480E00F900F900F9030
:1035E0000F900F90DF91CF911F910F9108956983F4
:1035F0004A835B838C839D83663074F70E94760ECA
:10360000282F80911F0290912002223041F420E067
:10361000A801BE016F5F7F4F0E944615DECF20E0FC
:1036200040E050E0F6CFCF93DF9300D000D00F9270
:10363000CDB7DEB7FC01DA01A90180911F0290919C
:103640002002009749F480E00F900F900F900F90A8
:103650000F90DF91CF9108956983AA83BB83EC8398
:10366000FD83663084F320E0BE016F5F7F4F0E94D0
:103670001316EACF80911D0290911E020895FC015D
:10368000848595850895FC010FB6F8940F92928970
:10369000611529F09460928B0F900FBE08959B7F67
:1036A000FACF0FB6F8940F92FC01828982FB88272B
:1036B00080F90F900FBE08950C94511BFC0182817C
:1036C00093810895FC018081918108950FB6F8944B
:1036D0000F92FC01828981700F900FBE08950FB682
:1036E000F8940F92FC01868597850F900FBE089580
:1036F0000FB6F8940F92FC01668777870F900FBE84
:10370000089510921F021092200210921D02109232
:103710001E020895CF93DF938BE090E00E945D211D
:10372000EC01009731F0FC0111921192CF010E943F
:103730001119CE01DF91CF910895AF92BF92CF9230
:10374000DF92EF92FF920F931F93CF93DF937C0151
:10375000EB01B42EA22E68010E944C09F7010081F2
:103760001181C8018C239D23A11016C0892BB9F4A7
:10377000C114D104F1F081E0B11001C080E0782FD4
:10378000A11074606C2F7D2BA601C70102960E94C8
:103790004E0C00E010E00FC08C179D0749F7B114E4
:1037A00041F0CE018095909580239123F70180838D
:1037B0009183C12CD12C0E946B0ACD28C9F08111B4
:1037C00002C00E949E210E94A70F91FD0FC00FB65C
:1037D000F8940F92F701808191819E01282339236B
:1037E000A11012C0232B99F40F900FBE082F10E0E8
:1037F000C801DF91CF911F910F91FF90EF90DF9063
:10380000CF90BF90AF900895C217D30769F7B11456
:1038100059F3C095D095C823D923F701C083D1832C
:10382000E3CFFC010FB6F8940F92808191816095EF
:10383000709568237923608371830F900FBE08957C
:10384000FC01808191810895CF92DF92EF92FF92E7
:103850000F931F93CF93DF93EC018B017C0185E0E5
:10386000E80EF11C0E944C09EF81F885688179818E
:10387000602B712B6883798300E010E06881798187
:10388000EE15FF0599F4009510950623172308837C
:1038900019830E946B0A88819981DF91CF911F91D2
:1038A0000F91FF90EF90DF90CF900895C280D3806A
:1038B00020813181822F90E0AC01462332FD04C08B
:1038C000452B29F4F601DACF84179507D9F730FD97
:1038D000082B7260CF010E947E0DF4CFAF92BF9291
:1038E000CF92DF92EF92FF920F931F93CF93DF93CC
:1038F0007C01EB018A0169010E944C09F701A0805B
:10390000B180BE01C7010E94241CCA29DB29CE0157
:10391000802391238017910709F03BC0F701808134
:103920009181980120953095822393238083918300
:10393000C12CD12C0E946B0ACD28F9F0811102C054
:103940000E949E210E94A70F91FD15C00FB6F8940A
:103950000F92F70180819181980128233923201744
:10396000310739F4A80140955095482359234083E5
:1039700051830F900FBEC82FD0E0CE01DF91CF91C1
:103980001F910F91FF90EF90DF90CF90BF90AF907D
:103990000895C114D10451F0A601B8017560C701A2
:1039A00002960E944E0CC0E0D0E0C4CFF701C08167
:1039B000D181C0CFCF93DF93EC010E944C098A8163
:1039C000811107C00E946B0ACE01DF91CF910C9448
:1039D000752160E072E08F8198850E947E0DEFCFA7
:1039E000BA010C94241CBA010C94111CFC014481F2
:1039F000558122813381240F351F80819181B90146
:103A0000681B790BCB016417750710F0841B950BAD
:103A100008958F929F92AF92BF92CF92DF92EF92D2
:103A2000FF920F931F93CF93DF936C015B018A0189
:103A3000E901FC01E480F580E21AF30A47014E1522
:103A40005F0508F44A01F60184859585A401B50156
:103A50008C0F9D1F0E945F24E016F10658F4A80108
:103A600048195909B501680D791DF60184859585B8
:103A70000E945F24CE01800F911FF60124813581C1
:103A80008217930710F0821B930BDF91CF911F9148
:103A90000F91FF90EF90DF90CF90BF90AF909F90ED
:103AA0008F900895CF92DF92EF92FF920F931F9322
:103AB000CF93DF9300D000D0CDB7DEB76C016B831E
:103AC0007C837A01C901F60122813381468540FF5A
:103AD00028C0E982FA828017910740F142E050E065
:103AE000BE016F5F7F4FC6010E94091D9C01E1145A
:103AF000F10449F0A7016B817C81C6010E94091D78
:103B0000F60193838283C7010F900F900F900F905F
:103B1000DF91CF911F910F91FF90EF90DF90CF90A9
:103B200008958E159F0518F77C01E1CFE12CF12C4B
:103B3000EACF8F929F92AF92BF92CF92DF92EF9295
:103B4000FF920F931F93CF93DF936C014B018A0178
:103B5000E901FC01E480F580E21AF30A57014E15F1
:103B60005F0508F45A01F601648575856C0F7D1FA9
:103B7000A501C4010E945F24E016F10658F4A801D3
:103B80004A195B09F60164857585C4018A0D9B1D80
:103B90000E945F24CE01800F911FF60124813581A0
:103BA0008217930710F0821B930BDF91CF911F9127
:103BB0000F91FF90EF90DF90CF90BF90AF909F90CC
:103BC0008F900895CF92DF92EF92FF920F931F9301
:103BD000CF93DF9300D000D0CDB7DEB77C016B83ED
:103BE0007C836A018901FC0120813181868580FF07
:103BF00011C042E050E0BE016F5F7F4FC7010E94DD
:103C0000991D9C0189819A81C816D90608F1025034
:103C100011096C01C016D10608F4860101151105C1
:103C200049F0A8016B817C81C7010E94991DF701B1
:103C300091838083C8010F900F900F900F90DF91B8
:103C4000CF911F910F91FF90EF90DF90CF9008954B
:103C500000E010E0EFCF0F931F93CF93DF9300D0DE
:103C60000F92CDB7DEB78C0169837A834130B1F111
:103C700081E08B83423009F01B82AB81AA0FAA0F2F
:103C8000AB83E0E0F0E00F3E8FEF1807F0F4C801DF
:103C900041960E945D21FC01892BB9F080E1DF0192
:103CA0001D928A95E9F7CF014096848795870F5F2B
:103CB0001F4F0483158389819A81009711F481E055
:103CC00090E086839783BB81B687CF010F900F90DA
:103CD0000F90DF91CF911F910F910895B1E0BB83B9
:103CE000D0CFFC01268521FF0C94752120E1119293
:103CF0002A95E9F70895FC010FB6F8940F92808594
:103D00009185892BD9F482859385892BB9F4868591
:103D100026813781448155816485758590E1DF0175
:103D20001D929A95E9F764877587448355832683A6
:103D30003783868781E00F900FBE089580E0FBCF28
:103D4000FC0180859185892BC9F482859385892B17
:103D5000A9F48685268137814481558164857585DE
:103D600090E1DF011D929A95E9F764877587448396
:103D7000558326833783868781E0089580E0089500
:103D80006115710511F461E070E0FC012481358159
:103D90006217730720F46683778381E0089580E0DB
:103DA0000895FC0144815581808191812081318178
:103DB00062817381A081B181A817B907A9F7240F87
:103DC000351FC9010197861B970B8417950710F0C3
:103DD000841B950B08950C94F61C4F925F926F9282
:103DE0007F928F929F92AF92BF92CF92DF92EF928B
:103DF000FF920F931F93CF93DF93CDB7DEB7299731
:103E00000FB6F894DEBF0FBECDBF5C016E837F831B
:103E10003A012C833D83FC0184819581019726859D
:103E20004A0120FF4FC0F2E08F0E911C88159905C2
:103E300008F04CC01C821D82C5010E94D11E2C01BD
:103E400084019201A3016E817F81C5010E94521DF0
:103E50006C01892BF9F0C5010E94F61CF501268141
:103E6000378182179307B0F00E944C09F5018085D5
:103E70009185892B69F080859185E12CF12C870152
:103E80009701A70167850E941111F501118610861F
:103E90000E946B0AC60129960FB6F894DEBF0FBECA
:103EA000CDBFDF91CF911F910F91FF90EF90DF90E9
:103EB000CF90BF90AF909F908F907F906F905F90CA
:103EC0004F9008958417950708F44C018C819D81CB
:103ED000892B09F4B1CF8E010F5F1F4FC8010E94DB
:103EE000010E088719870FB6F8940F92C5010E943A
:103EF000D11E2C018815990548F5F501678580E0EC
:103F000090E00E949F130E94670EF50193878287BD
:103F10000F900FBECC80DD80E12CF12C8701970142
:103F2000A701B70187850E945010F50113861286FC
:103F3000BE016C5F7F4F888599850E941C0E81159C
:103F400091F24114510409F477CF7ACF0F900FBE4C
:103F5000F8CFAF92BF92CF92DF92EF92FF920F9382
:103F60001F93CF93DF93EC015B017A0169018E858A
:103F70008A0180FF02C00E5F1F4FCE010E94D11E3A
:103F80009C01A701B501CE010E94521D5C01892B45
:103F9000C1F0CE010E94F61C2E813F81821793074B
:103FA00080F088859985892B61F088859985E12C39
:103FB000F12C87019701A7016F850E94F6111986E0
:103FC0001886C501DF91CF911F910F91FF90EF905F
:103FD000DF90CF90BF90AF900895AF92BF92CF92F5
:103FE000DF92EF92FF920F931F93CF93DF9300D056
:103FF00000D000D0CDB7DEB78D839E8369837A83EE
:104000004B835C836901FC01868580FD51C0A12C36
:10401000B12C82FF02C0A680B780C114D10409F47C
:104020004BC00FB6F8940F928D819E810E94F61CB2
:104030008C01A816B90668F0ED81FE81678580E0E5
:1040400090E00E949F130E94670EED81FE81918790
:1040500080870F900FBEA016B10688F1E12CF12CDD
:1040600087019701A701B701ED81FE8187850E9435
:104070005010ED81FE8111861086CF010E94F61C42
:104080008C01A816B906D8F0C12CD12CC6010F900E
:104090000F900F900F900F900F90DF91CF911F9185
:1040A0000F91FF90EF90DF90CF90BF90AF90089569
:1040B00082E0A82EB12CB1CF8D819E81DFCF9801F7
:1040C0004B815C8169817A818D819E810E94E21D94
:1040D0006C01892BC9F20E944C09ED81FE81828519
:1040E0009385892B71F082859385E12CF12C8701D2
:1040F0009701A70167850E941111ED81FE8113864A
:1041000012860E946B0AC2CF0F931F93CF93DF9347
:1041100000D0CDB7DEB78C01FC01868580FD09C0DB
:1041200080E090E00F900F90DF91CF911F910F9161
:104130000895C8010E94F61C039790F3F8012081AE
:10414000318142E050E0BE016F5F7F4FC8010E94A5
:10415000991D89819A81E6CFAF92BF92CF92DF926B
:10416000EF92FF920F931F93CF93DF93EC017B01AC
:104170005A0169018E8502E010E080FF00E0CE0167
:104180000E94F61C0817190770F0A12CB12CC5016C
:10419000DF91CF911F910F91FF90EF90DF90CF9023
:1041A000BF90AF9008959C01A501B701CE010E9478
:1041B000E21D5C01892B49F38A859B85892B39F3A4
:1041C0008A859B85E12CF12C00E09701A7016F8582
:1041D0000E94F6111B861A86DACFFC0120813181FC
:1041E0004281538181E04217530709F080E008952E
:1041F000CF93DF93FC012685C2E0D0E020FFC0E032
:104200000E94D11E9C0181E0C217D30708F480E010
:10421000DF91CF910895CF92DF92EF92FF920F93AB
:104220001F93CF93DF93EC0188859985892BB9F093
:10423000888599856B01E12CF12C87019701A701F5
:104240006F850E94F6111986188681E0DF91CF9163
:104250001F910F91FF90EF90DF90CF90089580E035
:10426000F5CFCF92DF92EF92FF920F931F93CF93F0
:10427000DF93EC018A859B85892BB9F08A859B8524
:104280006B01E12CF12C87019701A7016F850E943A
:10429000F6111B861A8681E0DF91CF911F910F9155
:1042A000FF90EF90DF90CF90089580E0F5CFFC0174
:1042B00087850895FC0167870895CF93DF9300D029
:1042C000CDB7DEB789839A830E944C0989819A8190
:1042D0000E943E2389839A830E946B0A89819A8176
:1042E0000F900F90DF91CF910895CF93DF93EC0162
:1042F000892B49F00E944C09CE010E94D423DF9102
:10430000CF910C946B0ADF91CF910895FC016083EB
:104310007293129220E822931292779740835293DD
:10432000839708950FB6F894A895809160008861EE
:1043300080936000109260000FBE08950F920FB638
:10434000F8940F921F9211242F923F924F925F92F6
:104350006F927F928F929F92AF92BF92CF92DF9295
:10436000EF92FF920F931F932F933F934F935F937F
:104370006F937F938F939F93AF93BF93CF93DF936D
:10438000EF93FF93A091B401B091B5010DB60D92DA
:104390000EB60D920E94A80BA091B401B091B50188
:1043A000CD91CDBFDD91DEBFFF91EF91DF91CF9138
:1043B000BF91AF919F918F917F916F915F914F913D
:1043C0003F912F911F910F91FF90EF90DF90CF9031
:1043D000BF90AF909F908F907F906F905F904F9025
:1043E0003F902F901F900F900FBE0F9008950F9247
:1043F0000FB6F8940F921F9211242F923F924F9272
:104400005F926F927F928F929F92AF92BF92CF9264
:10441000DF92EF92FF920F931F932F933F934F934F
:104420005F936F937F938F939F93AF93BF93CF933C
:10443000DF93EF93FF93A091B401B091B5010DB656
:104440000D920EB60D920E94A80BA091B401B091EE
:10445000B501CD91CDBFDD91DEBFFF91EF91DF9131
:10446000CF91BF91AF919F918F917F916F915F910C
:104470004F913F912F911F910F91FF90EF90DF90FF
:10448000CF90BF90AF909F908F907F906F905F90F4
:104490004F903F902F901F900F900FBE0F90189548
:1044A0000F920FB6F8940F921F9211242F923F9201
:1044B0004F925F926F927F928F929F92AF92BF9234
:1044C000CF92DF92EF92FF920F931F932F933F9320
:1044D0004F935F936F937F938F939F93AF93BF930C
:1044E000CF93DF93EF93FF93A091B401B091B50107
:1044F0000DB60D920EB60D9213BE0E946C0981117D
:104500000E94A80BA091B401B091B501CD91CDBF8F
:10451000DD91DEBFFF91EF91DF91CF91BF91AF9120
:104520009F918F917F916F915F914F913F912F91CB
:104530001F910F91FF90EF90DF90CF90BF90AF90C1
:104540009F908F907F906F905F904F903F902F90B3
:104550001F900F900FBE0F9008950E94BF03A0916F
:10456000B401B091B501CD91CDBFDD91DEBFFF911A
:10457000EF91DF91CF91BF91AF919F918F917F91FB
:104580006F915F914F913F912F911F910F91FF90EC
:10459000EF90DF90CF90BF90AF909F908F907F90E3
:1045A0006F905F904F903F902F901F900F900FBE95
:1045B0000F90089581E008950E9450221895A29FBF
:1045C000B001B39FC001A39F700D811D1124911DE7
:1045D000B29F700D811D1124911D0895AA1BBB1B54
:1045E00051E107C0AA1FBB1FA617B70710F0A61BF3
:1045F000B70B881F991F5A95A9F780959095BC0114
:10460000CD01089597FB072E16F4009407D077FD8F
:1046100009D00E94EE2207FC05D03EF490958195CA
:104620009F4F0895709561957F4F0895A1E21A2ECE
:10463000AA1BBB1BFD010DC0AA1FBB1FEE1FFF1F46
:10464000A217B307E407F50720F0A21BB30BE40B96
:10465000F50B661F771F881F991F1A9469F76095DD
:104660007095809590959B01AC01BD01CF01089597
:10467000EE0FFF1F0590F491E02D09940F931F9307
:10468000CF93DF938230910510F482E090E0E091C7
:104690003D02F0913E0220E030E0D901309799F4DC
:1046A0002115310509F447C0281B390B2430310589
:1046B000B8F5DB0112968D919D91209761F18A8367
:1046C0009B83FB010DC040815181028113814817FA
:1046D0005907C0F089F4109751F012960D931C936E
:1046E0003296CF01DF91CF911F910F9108950093E2
:1046F0003D0210933E02F4CF2115310551F04217CF
:10470000530738F0A901DE019A01ED01DF01F8013C
:10471000C5CFBF01F9CF80933D0290933E02D1CF28
:10472000FB01E20FF31F8193919322503109DB01CA
:104730002D933D93D6CF40913F02509140024115B9
:10474000510541F4409104015091050140933F020D
:10475000509340022091020130910301211531054F
:1047600041F42DB73EB76091060170910701261BF9
:10477000370B4217530708F0B4CF241B350B28170B
:10478000390708F4AECFBC016E5F7F4F261737079D
:1047900008F4A7CF640F751F60933F027093400227
:1047A000FA01819391939DCF009709F463C0FC01B6
:1047B00032971282138220913D0230913E02D9013C
:1047C00040E050E02115310591F420813181820FC4
:1047D000931F20913F02309140022817390709F0BA
:1047E00063C0E0933F02F09340020895DB01AE17EF
:1047F000BF0708F040C012966D917D911497AD01EE
:104800006115710599F7DA011296ED93FD931497EE
:104810006D917D91CD01860F971FE817F90761F41F
:10482000808191810296860F971FDA018D939D9367
:10483000828193818D939D93E0E0F0E0D9011296FF
:104840008D919D9114970097A1F58D919D918A0F5F
:104850009B1F40913F02509140024817590751F465
:10486000309751F510923D0210923E0220933F0284
:10487000309340020895A283B38360817181860FD3
:10488000971FA817B90761F46E5F7F4F8D919D91B7
:10489000860F971F808391838D919D91828393834F
:1048A0004115510509F0AFCFE0933D02F0933E0270
:1048B0000895F9019C01C2CF12821382D7CFFB0168
:1048C000DC0102C001900D9241505040D8F708958C
:1048D000DC0101C06D9341505040E0F70895F89419
:1048E000FFCF5B035B039E03870398035B035B03BC
:0448F0009E03870399
:1048F4005A5A000041022000034C6566743A2000B5
:1049040052696768743A200054656D703A20005308
:10491400656E736F7200467573696F6E0030780050
:104924000D0A003031323334353637383941424399
:104934004445460049444C4500546D722053766307
:10494400005343414E4E494E472E2E2E00484541BA
:104954005420534F55524345004C49474854205323
:104964004F5552434500434F4D42494E454420451F
:1049740056454E5400436F6E666964656E636520E8
:0849840053636F72653A2000D5
:00000001FF
