:100000000C9434000C9451000C9451000C94510049
:100010000C9451000C9451000C9402220C94510049
:100020000C9451000C9451000C9451000C9451000C
:100030000C9451000C9451000C9451000C945100FC
:100040000C9451000C9451000C9451000C945100EC
:100050000C9451000C9451000C9451000C945100DC
:100060000C9451000C94510011241FBECFEFD8E026
:10007000DEBFCDBF11E0A0E0B1E0E0EFF6E402C0EA
:1000800005900D92AA38B107D9F722E0AAE8B1E0AD
:1000900001C01D92AF32B207E1F70E94DC030C945D
:1000A0006D230C9400006CE388E60E944602809366
:1000B000A1016BE388E60E9446028093A0016EE3F3
:1000C00088E60E94460280939F016DE388E60E94C5
:1000D000460280939E0160E488E60E944602809377
:1000E0009D016FE388E60E94460280939C01209167
:1000F000A1019091A00120939A0190939B012091DE
:100100009F0190919E012093980190939901909165
:100110009D01292F382FC901809396019093970153
:1001200088E091E00E947D028091A0010E948A02F5
:1001300082E191E00E947D028091A1010E948A02E9
:100140008BE191E00E947D0280919E010E948A02D3
:1001500085E291E00E947D0280919F010E948A02C7
:100160008EE291E00E947D0280919C010E948A02B1
:1001700088E391E00E947D0280919D010C948A02A7
:1001800064E488E60E9446028093950163E488E671
:100190000E9446028093940166E488E60E9446022B
:1001A0008093930165E488E60E9446028093920161
:1001B00068E488E60E9446028093910167E488E63D
:1001C0000E944602809390012091950190919401A4
:1001D00020938E0190938F01209193019091920131
:1001E00020938C0190938D0190919101292F382FAC
:1001F000C90180938A0190938B0187E091E00E946E
:100200007D02809194010E948A0281E191E00E9426
:100210007D02809195010E948A028AE191E00E940C
:100220007D02809192010E948A0284E291E00E9404
:100230007D02809193010E948A028DE291E00E94EA
:100240007D02809190010E948A0287E391E00E94E2
:100250007D02809191010C948A026FEF7FEF809173
:10026000A2019091A3010E942C160E9453000E94AB
:10027000C00020E040E050E0BA018091A2019091DE
:10028000A3010E946C1481E090E00E94990AE5CFDE
:100290008770806480937C0087EC80937A008091E3
:1002A0007A0086FDFCCF80917800909179000895C6
:1002B000CF93DF9300D000D0CDB7DEB780E00E94AF
:1002C000480189839A8381E00E9448018B839C8343
:1002D00080E491E00E947D0289819A8196958795BC
:1002E000969587950E948A0287E491E00E947D029C
:1002F0008B819C8196958795969587950F900F9009
:100300000F900F90DF91CF910C948A026FEF7FEFE7
:100310008091A2019091A3010E942C160E94580185
:1003200020E040E050E0BA018091A2019091A30149
:100330000E946C1480E090E00E94990AE7CFCF936E
:10034000DF9300D0CDB7DEB782E00E9448018983F9
:100350009A838FE491E00E947D0289819A8196952B
:100360008795969587950F900F90DF91CF910C947C
:100370008A026FEF7FEF8091A2019091A3010E940A
:100380002C160E949F0120E040E050E0BA018091CD
:10039000A2019091A3010E946C148EE390E00E9450
:1003A000990AE7CF82E8809380008AE180938100F8
:1003B0008FE39CE9909387008093860088EB9BE015
:1003C0009093890080938800219A0895282F30E027
:1003D000A0EDB7E00E94052224EB40E050E00E942F
:1003E00014222053384F30938900209388000895B9
:1003F00088E48093B800089584EA8093BC008091DB
:10040000BC0087FFFCCF089584E98093BC008091F5
:10041000BC0084FDFCCF08958093BB0084E88093EA
:10042000BC008091BC0087FFFCCF089584EC8093D2
:10043000BC008091BC0087FFFCCF8091BB00089579
:1004400084E88093BC008091BC0087FFFCCF809142
:10045000BB000895CF93DF9300D00F92CDB7DEB7E6
:1004600089836A834B830E94FC018981880F0E94E3
:100470000C028A810E940C028B810E940C020F9058
:100480000F900F90DF91CF910C940402CF93DF93E4
:1004900000D0CDB7DEB78A8369830E94FC018A81D0
:1004A000880F8A830E940C0289810E940C020E949C
:1004B000FC018A8181600E940C020E9420028983D3
:1004C0000E94040289810F900F90DF91CF910895CF
:1004D0009B01AC0160E472E48FE090E00E94142282
:1004E000215031093093C5002093C40088E18093E6
:1004F000C10086E08093C2000895FC012081211193
:1005000001C0089501963091C00035FFFCCF2093C3
:10051000C600F3CF1F93CF93DF93CDB7DEB76197BC
:100520000FB6F894DEBF0FBECDBF182F81E1EBE60A
:10053000F1E0DE01119601900D928A95E1F785E6D2
:1005400091E00E947D028091C00085FFFCCF812F49
:1005500082958F70FE013196E80FF11D80818093A6
:10056000C6008091C00085FFFCCF1F70FE01319650
:10057000E10FF11D80818093C60088E691E06196CD
:100580000FB6F894DEBF0FBECDBFDF91CF911F91A4
:100590000C947D020E94E8048091E701823010F003
:1005A0000E94C4200E94B303F5CFCF93DF9300D005
:1005B00000D000D00F92CDB7DEB77E018FEFE81AE2
:1005C000F80AEE82FF82E0911302F0911402B080EB
:1005D00000E010E0B11429F00580F681E02D0081E3
:1005E00011810E9472080E9478086C0180910B02B0
:1005F00090910C02C816D90608F046C00E94541902
:10060000C0920B02D0920C020E949109D701E5E042
:100610001D92EA95E9F740E050E06E817F8180917C
:100620000F02909110020E949B15811561F2898141
:1006300087FDF1CF0C811D81D8011A968D919D9176
:10064000892B21F0C80102960E9498180E94780810
:100650006C0180910B0290910C02C816D90610F41F
:100660000E945419C0920B02D0920C02E981E15011
:10067000E93088F6FE2FFF0FFF0BE159FC4DD80142
:1006800052968C910C943622C0920B02D0920C029E
:10069000B11451F0C016D10670F00E949109B60154
:1006A000C8010E941819B2CFE0911102F091120214
:1006B00041E08081811140E0B8016C197D09809191
:1006C0000F02909110020E941B180E949109811143
:1006D0009DCF0E94C4209ACF8160F801828B2A812D
:1006E0003B8164857585620F731FA601C8010E9456
:1006F000BC18811509F48FCFD80152968C9152976E
:1007000082FF12C06A817B811C968D919D91680F3A
:10071000791FA601C8010E94E618D8015096ED91F4
:10072000FD91C801099577CF8E7FF801828BF5CFB7
:100730008160D80152968C936A817B8116976D9364
:100740007D936C0D7D1D9601A601C8010E94BC1809
:1007500062CF81FD04C0C8010E949B205CCF8E7FC8
:10076000F801828B58CF8FE380937E0080B7877F1C
:1007700080BF80B7806880BF83B7817F83BF0FB69B
:10078000F8940F9283B7816083BF85B7806685BF79
:100790008F7D85BF0F900FBE889513BE0895FFCF44
:1007A000A89588E190EC0FB6F894A8958093600026
:1007B0000FBE9093600008950E94F80160E875E212
:1007C00080E090E00E9468022FEF81EE94E02150DB
:1007D00080409040E1F700C0000040E06BE688E612
:1007E0000E942A020E94D20181E00E94FF1480939D
:1007F000A2019093A301E12CF12C02E0970140E0CB
:1008000051E066E571E08DE291E00E9412059701EA
:1008100040E850E06AE571E086E891E00E94120548
:1008200001E0970140E850E060E671E089EB91E07B
:100830000E9412050E941B08FFCF0F931F93CF93B6
:10084000DF9300D000D000D00F92CDB7DEB78E83FB
:100850009F836D830091B2011091B3012091D30168
:100860003091D40129833A838091D1019091D201B2
:100870008B839C838091A4019091A50102960E9494
:1008800098182E813F812F3F3F4F09F040C09D8136
:100890009115E9F1E091B601F091B701A091A401A1
:1008A000B091A5011496ED93FD93A091A401B09190
:1008B000A5018481958116968D939D938091A401C5
:1008C0009091A501A481B581029612968D939D9376
:1008D0008091A4019091A501029684839583E09173
:1008E000A401F091A50185EB91E082879387809127
:1008F000B5018F5F8093B50127960FB6F894DEBFE0
:100900000FBECDBFDF91CF911F910F9108952E8122
:100910003F81200F311F2E833F83E091A401F0918E
:10092000A501228333836091A4017091A5016E5FBC
:100930007F4F2017310770F48B819C8127960FB66B
:10094000F894DEBF0FBECDBFDF91CF911F910F9105
:100950000C94681889819A810E9468188091A90175
:100960009091AA012E813F812817390728F63093EC
:10097000AA012093A901C0CFFC0182859385855BE4
:10098000914061F48489958921E0883C920731F097
:10099000892B21F497A581E0913009F480E0089536
:1009A000E091D301F091D4018081811107C08FEFD4
:1009B0009FEF9093AA018093A9010895E091D3013C
:1009C000F091D4010580F681E02D80819181F1CFF5
:1009D000CF93DF938091BE01811103C0DF91CF914E
:1009E00008950FB6F8940F92E091C401F091C501FB
:1009F000C681D781CE0102960E9498188091B401D9
:100A000081508093B4018091BE0181508093BE01DA
:100A10000F900FBE8F89988D0E949B20CE010E945F
:100A20009B20D8CF8F929F92AF92BF92CF92DF92AE
:100A3000EF92FF920F931F93CF93DF9300D000D0DC
:100A400000D00F92CDB7DEB789839A836B015A012C
:100A50002B833C830D83CA010E9483208C01892B48
:100A6000A1F48FEF27960FB6F894DEBF0FBECDBF6F
:100A7000DF91CF911F910F91FF90EF90DF90CF907A
:100A8000BF90AF909F908F90089580E390E00E9478
:100A900083204C01892B09F4D7C080E3D4011D9237
:100AA0008A95E9F7F401078B108FA50165EA70E0DC
:100AB000C8010E946623C5010197D4015796AD90E5
:100AC000BD90A80EB91EC114D10409F0C1C0DD80CB
:100AD000F4E0DF1610F023E0D22ED4015696DC921B
:100AE0005396DC9284010E5F1F4FC8010E94451887
:100AF000C4010C960E944518F4018086918684E01A
:100B000090E08D19910984879587828A938A4B8119
:100B10005C8169817A81C5010E94AC20D4018D93EA
:100B20009D93E114F10419F0F701808291820FB6D0
:100B3000F8940F928091B4018F5F8093B4018091FB
:100B4000A4019091A501892B09F094C09092A50170
:100B50008092A4018091B401813089F587EEE82E5E
:100B600081E0F82E9BE0C92E92E0D92EC7010E94A9
:100B70003718F9E0EF0EF11CCE14DF04B9F78EED53
:100B800091E00E94371885ED91E00E94371888ECBB
:100B900091E00E9437188FEB91E00E94371885EBA7
:100BA00091E00E9437188EED91E09093D4018093EC
:100BB000D30185ED91E09093D2018093D101809192
:100BC000AB018F5F8093AB01F401A6898091B101E5
:100BD0008A1710F4A093B10129E02A9FD0011124B3
:100BE000A951BE4F11960D90BC91A02DF401A48384
:100BF000B58314968D919D91868397839E918E9156
:100C0000FC01028313830D931D93D40156968C919E
:100C1000289FF0011124E951FE4F1C97ED93FD939D
:100C200080818F5F80830F900FBE8091B00181150E
:100C300049F0E091A401F091A5019689F40186891B
:100C4000981760F181E00ECFC8010E949B2009CF68
:100C5000F601D40159969601205F3F4F80818C9315
:100C6000811529F031961196E217F307B9F7F401CF
:100C700010A62DCF8091B0018111A1CFE091A401E8
:100C8000F091A5018689D40156969C91981708F495
:100C900096CF9092A5018092A40191CF0E94C4208A
:100CA000D1CF0F931F93CF93DF93EC010FB6F8943E
:100CB0000F92892B21F4C091A401D091A5018E013E
:100CC0000E5F1F4FC8010E9498188C899D89892B3F
:100CD00021F0CE010C960E9498188091AB018F5F95
:100CE0008093AB018091A4019091A5012091B00166
:100CF000211559F18C179D0741F5B8018FEB91E053
:100D00000E9449188091BE018F5F8093BE0181E0EF
:100D10000F900FBE813039F08F89988D0E949B20F3
:100D2000CE010E949B208091B001811549F08091F5
:100D3000A4019091A5018C179D0711F40E94C42075
:100D4000DF91CF911F910F9108958091B40181504F
:100D50008093B4010E94D00480E0DACF0FB6F894FB
:100D60000F92009721F48091A4019091A501FC01BC
:100D700086890F900FBE0895009721F48091A401F9
:100D80009091A501FC01868908950FB6F8940F9201
:100D9000009721F48091A4019091A501FC0181A507
:100DA0000F900FBE0895009721F48091A4019091B7
:100DB000A501FC0181A50895EF92FF921F93CF93A7
:100DC000DF93EC01643008F063E00FB6F8940F9203
:100DD000209721F4C091A401D091A50199A596175F
:100DE00009F46AC088F42091A4013091A5012C1760
:100DF0003D0741F0E091A401F091A50111E0868941
:100E0000861750F010E008C02091A4013091A50190
:100E100011E02C173D07B1F78E89981711F086174E
:100E200008F46E8B69A72C853D8537FD06C024E04C
:100E300030E0261B31092C873D8729E0829FC001C5
:100E4000112489519E4F2A853B852817390789F53A
:100E50007E0182E0E80EF11CC7010E949818AE895D
:100E60008091B1018A1710F4A093B10129E02A9F63
:100E7000D0011124A951BE4F11960D90BC91A02D07
:100E8000AC83BD8314968D919D918E839F839E919B
:100E90008E91FC01E282F382ED92FD928E89289F71
:100EA000F0011124E951FE4FEA87FB8780818F5FB3
:100EB000808311110E94C4200F900FBEDF91CF914B
:100EC0001F91FF90EF9008950F931F93CF93DF939F
:100ED000EC018091A4019091A5018C179D0709F464
:100EE00047C0209709F444C00FB6F8940F92CE0182
:100EF0000E94BC048115D1F18E010E5F1F4FC80105
:100F00000E949818AE898091B1018A1710F4A093BD
:100F1000B10129E02A9FD0011124A951BE4F119699
:100F20000D90BC91A02DAC83BD8314968D919D91A5
:100F30008E839F839E918E91FC01028313830D9378
:100F40001D938E89289FF0011124E951FE4FEA87F5
:100F5000FB8780818F5F8083E091A401F091A501E0
:100F600096898E89981710F40E94C4200F900FBEA6
:100F7000DF91CF911F910F910895EF92FF921F93F0
:100F8000CF93DF93EC010E94BC04182F811509F464
:100F900050C08091A601811145C0E091A401F0915B
:100FA000A5018E8996899817D8F581E08093AD01C7
:100FB0007E0182E0E80EF11CC7010E949818AE89FC
:100FC0008091B1018A1710F4A093B10129E02A9F02
:100FD000D0011124A951BE4F11960D90BC91A02DA6
:100FE000AC83BD8314968D919D918E839F839E913A
:100FF0008E91FC01E282F382ED92FD928E89289F10
:10100000F0011124E951FE4FEA87FB8780818F5F51
:101010008083812FDF91CF911F91FF90EF900895F2
:1010200010E0C6CFBE01645F7F4F88EC91E00E9464
:10103000491810E0EECFEF92FF920F93CF93DF931A
:10104000CDB7DEB760970FB6F894DEBF0FBECDBF49
:10105000ACE7B1E0FE013196BF018D918193811122
:10106000FCCF87EAE82E81E0F82E00E020E030E0B7
:101070004CE550E08AEC92E00E941205813099F430
:101080000E949B19813079F4F8942FEF3FEF309351
:10109000AA012093A9018093B0011092B30110928C
:1010A000B2010E94D3218091060160960FB6F89498
:1010B000DEBF0FBECDBFDF91CF910F91FF90EF90BC
:1010C00008950E94601A0E9451068091A701909194
:1010D000A8010E9451060E94E804F8941092B00101
:1010E0000C94B8208091A6018F5F8093A60108958B
:1010F0000FB6F8940F928091B2019091B3010F90C6
:101100000FBE08958091B2019091B301089580912E
:10111000B4010895009721F48091A4019091A50154
:1011200049960895EF92FF920F931F93CF93DF9309
:101130008091A6018111EAC0C091B201D091B301A2
:1011400021967E01D093B301C093B201CD2BB9F4A7
:101150008091D3019091D4012091D1013091D2019D
:101160003093D4012093D3019093D2018093D10185
:101170008091AC018F5F8093AC010E94D00480917C
:10118000A9019091AA01E816F90608F4BDC090E003
:1011900069E0E091D301F091D4018081811125C0F3
:1011A0002FEF3FEF3093AA012093A901E091A40112
:1011B000F091A5013091AD01E689D9E0ED9FF001F4
:1011C0001124E951FE4F81E02081223008F480E0B3
:1011D00021E0311101C020E0822B892BDF91CF91DA
:1011E0001F910F91FF90EF900895E091D301F0913E
:1011F000D4010580F681E02D0680F781E02D228163
:101200003381E216F30670F2C285D38524813581DD
:1012100046815781D90114964D935D93268137817C
:1012200044815581D90112964D935D939F012E5FA4
:101230003F4F49815A814217530721F44681578114
:1012400049835A8312861386888181508883A489B2
:10125000B589109719F14685578500891189EA01EA
:101260000C831D834089518906851785EA010A830D
:101270001B8311960D911D911397AF01445F5F4F32
:101280000417150731F44089518911964D935D93E8
:101290001397148A158A8C9181508C93A68980911A
:1012A000B1018A1710F4A093B1016A9FD0011124F3
:1012B000A951BE4F11960D90BC91A02DA483B5836A
:1012C00014964D915D91468357835E914E91EA014C
:1012D0002A833B832D933D93A6896A9FD0011124D5
:1012E000A951BE4FA287B3878C918F5F8C93A09139
:1012F000A401B091A50181E0268956963C91321750
:1013000008F080E0982B45CF90E050CF8091AE015F
:101310009091AF0101969093AF018093AE0180E070
:101320005DCF1F93CF93DF930FB6F8940F92809108
:10133000A60181508093A6018091A601811539F004
:1013400080E00F900FBEDF91CF911F9108958091A3
:10135000B4018115A9F3E0E0F0E039E041E07EC09E
:10136000E091CD01F091CE010680F781E02DA489B6
:10137000B589C685D785808991898C839D83C089ED
:10138000D189868597858A839B83CF010C96119698
:101390006D917D9113976817790731F48089918950
:1013A00011968D939D931397148A158A8C91815071
:1013B0008C93A285B385C481D581868197818C83E6
:1013C0009D83C681D781848195818A839B83CF0148
:1013D000029611966D917D9113976817790731F4F4
:1013E0006681778111966D937D931397128613868C
:1013F0002C9121502C93A6892091B1012A1710F429
:10140000A093B1013A9FD0011124A951BE4F11966A
:101410000D90BC91A02DA483B58314966D917D9100
:1014200066837783DE91CE918A839B838D939D9390
:10143000A6893A9FD0011124A951BE4FA287B38734
:101440008C918F5F8C93A091A401B091A5018689A6
:1014500056969C91981710F44093AD018091C80165
:1014600081117ECFEF2B11F00E94D004C091AE010C
:10147000D091AF01209761F011E00E949208811194
:101480001093AD012197C9F71092AF011092AE01F0
:101490008091AD01811509F453CF8091A401909101
:1014A000A5010E94C42081E04CCFCF93DF9300D0F0
:1014B00000D0CDB7DEB78B839C8369837A830E948B
:1014C00072082091B2013091B301EB81FC8140811F
:1014D000518189819A81840F951F24173507A0F4C3
:1014E00084179507A0F08083918319820E94910947
:1014F000811102C00E94C42089810F900F900F902B
:101500000F90DF91CF9108958417950730F0281739
:10151000390718F0EB81FC81E6CFEB81FC818083F9
:10152000918360E0821B930B0E941D04F1E0F9831C
:10153000DDCFCF93DF93EC01892B29F40E94C420E7
:10154000DF91CF9108950E94720860E0CE010E9461
:101550001D040E949109811589F3F2CFCF93DF9387
:1015600000D0CDB7DEB789839A830E9472080FB688
:10157000F8940F928091AE019091AF0129813A8148
:10158000820F931F9093AF018093AE010F900FBE17
:101590000F900F90DF91CF910C9491098091A6014B
:1015A000811521F081E08093AD0108951092AD0185
:1015B0008091B10199E0899F90011124D901A9512D
:1015C000BE4F9C91911509F11196ED91FD9102800C
:1015D000F381E02DFE93EE93119726513E4FE217D3
:1015E000F30731F41596ED91FD911697ED93FD9368
:1015F000268137813093A5012093A4018093B10106
:101600008091A4019091A50108958150D3CF0F93AB
:101610001F93CF93DF93EC010FB6F8940F92892BB1
:1016200021F4C091A401D091A5018E010E5F1F4F3E
:10163000C8010E9498188C899D89892B21F0CE01C0
:101640000C960E949818B80185EB91E00E94491809
:101650008FA5813009F41FA60F900FBE8091B001B5
:10166000811539F00FB6F8940F920E94D0040F90B4
:101670000FBE8091A4019091A5018C179D0731F4B4
:101680008091B001811539F00E94C420DF91CF9183
:101690001F910F9108959091B4018091B501981315
:1016A00005C01092A5011092A401F0CFDF91CF9157
:1016B0001F910F910C94CE0ACF93DF9300D0CDB73A
:1016C000DEB769837A836091A4017091A501645F9C
:1016D0007F4F0E94681861E089819A810F900F9076
:1016E000DF91CF910C941D04CF93DF93FC01A09167
:1016F000A401B091A50170681C966D937D93A181A2
:10170000B2818091A4019091A501EC01AE87BF87C1
:101710008091A4019091A50114962D913D91EC0129
:10172000288B398B2091A4013091A5019E918E9137
:10173000245F3F4FEC012A833B832091A401309129
:10174000A501245F3F4F2D933D93A091A401B0913B
:10175000A5015496ED93FD9390819F5F908361E086
:10176000CA01DF91CF910C941D040F931F93CF9367
:10177000DF93FC018B01A181B2818091A401909142
:10178000A501EC01AE87BF878091A4019091A501CE
:1017900014962D913D91EC01288B398B2091A40159
:1017A0003091A5019E918E91245F3F4FEC012A83D9
:1017B0003B832091A4013091A501245F3F4F2D93DD
:1017C0003D93A091A401B091A5015496ED93FD9392
:1017D00090819F5F9083411511F00FEF1FEF642FF1
:1017E000C801DF91CF911F910F910C941D04CF93ED
:1017F000DF93DC011596ED91FD910680F781E02DD8
:10180000A489B5898685978520893189EC012C8347
:101810003D838089918926853785EC012A833B8326
:10182000CF010C9611962D913D91139728173907EA
:1018300031F42089318911962D933D931397148AA1
:10184000158A2C9121502C932091A60121115EC064
:10185000A285B3858481958126813781EC012C8313
:101860003D838681978124813581EC012A833B83E6
:101870009F012E5F3F4F11968D919D911397821777
:10188000930731F48681978111968D939D931397D9
:10189000128613868C9181508C9386899091B10128
:1018A000981710F48093B101A9E0A89FC0011124FA
:1018B00089519E4FEC0189819A8184839583EC0143
:1018C0004C815D81468357834C815D81EA012A8387
:1018D0003B83EC012C833D838689A89FD001112492
:1018E000A951BE4FA287B3878C918F5F8C93A09133
:1018F000A401B091A501868956969C91981710F580
:1019000081E08093AD01DF91CF910895A091C9014D
:10191000B091CA01A687B78714962D913D91208B6F
:10192000318B3E912E91E9018A839B838D939D9308
:1019300088EC91E0848B958B8091C8018F5F8093B8
:10194000C801D5CF80E0DFCFCF93DF93DC01706893
:101950006D937D931496ED91FD914D915D91189746
:101960002D913D918D919D91E9018C839D839E9157
:101970008E911497EC012A833B83EA0129813A81F5
:101980002A173B0711F489839A8318961D921D929A
:10199000DA018C9181508C93A285B385C481D58165
:1019A000868197818C839D83C681D781848195812F
:1019B0008A839B839F012E5F3F4F11968D919D914E
:1019C00013978217930731F48681978111968D932F
:1019D0009D931397128613868C9181508C938689E0
:1019E0009091B101981710F48093B10169E0689F5C
:1019F000C001112489519E4FEC0189819A81848311
:101A00009583DC0114964D915D9146835783DE9159
:101A1000CE912A833B832D933D938689689FD00185
:101A20001124A951BE4FA287B3878C918F5F8C93ED
:101A3000A091A401B091A501868956969C91981712
:101A400018F481E08093AD01DF91CF9108950FB636
:101A5000F8940F922091AC01FC0120832091B201F7
:101A60003091B301218332830F900FBE08952091EE
:101A7000AC01FC0120832091B2013091B30121839C
:101A800032830895CF93DF93FB010FB6F8940F9242
:101A90006091B2017091B301208131812F3F3207F3
:101AA00019F1DC0111964D915D91A091AC01EC0111
:101AB000B881BA1759F06417750740F01082118287
:101AC00081E00F900FBEDF91CF910895DB01A41B41
:101AD000B50BA217B30790F7261B370B240F351F42
:101AE000208331830E94370D80E0EBCF81E080932B
:101AF000AD010895009721F48091A4019091A50172
:101B0000DC015796ED91FD9180E090E02081253A2F
:101B100009F0089531960196F9CF8091A401909132
:101B2000A5010895811105C08091A4019091A5019E
:101B3000089580E090E008958091B001811539F01A
:101B40009091A60181E0911180E0880F089581E0D5
:101B500008950F931F93CF93DF93EC01892B09F422
:101B60006EC08E89E091A401F091A5019689891734
:101B700008F05CC02C853D8537FD0BC0E091A401C9
:101B8000F091A501968924E030E0291B31092C87CA
:101B90003D8729E0829FC001112489519E4F2A85EB
:101BA0003B8528173907D9F58E010E5F1F4FC801F5
:101BB0000E949818E091A401F091A501A689AE8B2E
:101BC0008091B1018A1710F4A093B10129E02A9FF6
:101BD000D0011124A951BE4F11960D90BC91A02D9A
:101BE000AC83BD8314968D919D918E839F839E912E
:101BF0008E91FC01028313830D931D938E89289F80
:101C0000F0011124E951FE4FEA87FB8780818F5F45
:101C1000808381E0DF91CF911F910F910895E09132
:101C2000A401F091A50186898E8BF3CFE091A401E8
:101C3000F091A50181E029A59689291758F380E044
:101C4000E9CF0F931F93CF93DF93EC01892B31F4EE
:101C500080E0DF91CF911F910F9108958AA5815067
:101C60008AA72E8999A5291799F38111F1CF8E01A1
:101C70000E5F1F4FC8010E949818E9A5EE8B84E003
:101C800090E08E1B91098C879D878091B1018E1702
:101C900010F4E093B10189E08E9FF0011124E95125
:101CA000FE4F0180F281E02DEC83FD83248135819C
:101CB0002E833F83A481B58112960D931D930483D7
:101CC00015839E89899FF0011124E951FE4FEA870F
:101CD000FB8780818F5F808381E0BBCF0F931F9351
:101CE000CF93DF93EC01892B09F452C099A5961785
:101CF00008F4962F8E89891709F44AC02AA5213045
:101D000009F046C09E8B2C853D8537FD06C024E03A
:101D100030E0291B31092C873D8729E0829FC001D3
:101D2000112489519E4F2A853B852817390781F553
:101D30008E010E5F1F4FC8010E949818AE898091D6
:101D4000B1018A1710F4A093B10129E02A9FD001B4
:101D50001124A951BE4F11960D90BC91A02DAC83BA
:101D6000BD8314968D919D918E839F839E918E91BC
:101D7000FC01028313830D931D938E89289FF0012C
:101D80001124E951FE4FEA87FB8780818F5F8083B2
:101D9000DF91CF911F910F910895E091A401F091EF
:101DA000A50184859585A091A401B091A501E0913C
:101DB000A401F091A50156964C9124E030E0241B3B
:101DC00031092487358708958091A4019091A50158
:101DD000009721F0FC0122A52F5F22A70895EF9222
:101DE000FF920F931F93CF93DF9300D00F92CDB745
:101DF000DEB7082F69837A010E9472080FB6F89443
:101E00000F92E091A401F091A50184E0089F900158
:101E100011242A833B83E20FF31F83A594A5A5A574
:101E2000B6A5892B8A2B8B2B61F4E091A401F0914C
:101E3000A501E00FF11D81E087A711E0E114F10495
:101E400009F410E00F900FBE113021F461E0C701DA
:101E50000E941D040E949109113021F4811102C0D9
:101E60000E94C4200FB6F8940F92E091A401F09163
:101E7000A5012A813B81E20FF31F63A574A585A507
:101E800096A500977040604079F03981E091A401F7
:101E9000F091A5013115D9F02A813B81E20FF31FA2
:101EA00013A614A615A616A6E091A401F091A5010B
:101EB000E00FF11D17A60F900FBE0F900F900F901F
:101EC000DF91CF911F910F91FF90EF9008952A819C
:101ED0003B81E20FF31F9B01AC0121503109410905
:101EE000510923A734A745A756A7DECFCF92DF928B
:101EF000EF92FF920F931F93CF93DF93CDB7DEB78F
:101F000029970FB6F894DEBF0FBECDBF89874983EE
:101F10005A836B837C830D831E832F8338870E94B3
:101F200072080FB6F8940F92E091A401F091A50108
:101F30002985E20FF11D87A5823051F1E091A401BE
:101F4000F091A50134E0239FC0011124E80FF91F8F
:101F500043A554A565A576A589819A81AB81BC81ED
:101F600080959095A095B09584239523A623B723BB
:101F700083A794A7A5A7B6A7E091A401F091A50116
:101F8000E20FF11D81E087A711E0C114D10409F42B
:101F900010E00F900FBE113021F461E0C6010E94E5
:101FA0001D040E949109113021F4811102C00E9488
:101FB000C4200FB6F8940F92E114F104A1F0E0915F
:101FC000A401F091A501398524E0329FC0011124BC
:101FD000E80FF91F83A594A5A5A5B6A5F7018083F1
:101FE0009183A283B383E091A401F091A501298597
:101FF000E20FF11D87A58230C1F5E091A401F091B7
:10200000A50134E0239FC0011124E80FF91F43A567
:1020100054A565A576A58D819E81AF81B8858095F3
:102020009095A095B09584239523A623B72383A7E5
:1020300094A7A5A7B6A781E0E091A401F091A5011E
:102040009985E90FF11D17A60F900FBE29960FB6BF
:10205000F894DEBF0FBECDBFDF91CF911F910F91DE
:10206000FF90EF90DF90CF90089580E0E5CF8F92C2
:102070009F92AF92BF92EF92FF920F931F93CF93D5
:10208000DF93DC010FB6F8940F92E114F10481F0B4
:1020900074E0679FC00111248A0F9B1FEC018BA481
:1020A0009CA4ADA4BEA4F70180829182A282B382D7
:1020B000FD01E60FF11D87A592E097A703301105FA
:1020C00009F4ADC008F07AC00130110509F481C0EF
:1020D0000230110509F490C0813009F061C01A96F0
:1020E000ED91FD9118978D919D912D913D91EC0170
:1020F0002C833D839E918E913E912E911497EC01FD
:102100002A833B839D012E5F3F4F818192818217FD
:10211000930731F416968D919D9118978183928340
:102120001A961D921D928081815080831A968C91FF
:1021300056979091B101981710F48093B101E9E09E
:10214000E89FC001112489519E4FEC0189819A8139
:1021500014968D939D93EC014C815D814D935D931D
:102160004C815D81EA012A833B83EC012C833D8312
:102170001E968C91E89FF0011124E951FE4F1C97A7
:10218000ED93FD9380818F5F8083E091A401F091B6
:10219000A50196891A968C91981710F40E94C42074
:1021A00081E00F900FBEDF91CF911F910F91FF90B3
:1021B000EF90BF90AF909F908F90089504301105DD
:1021C00009F08ACF8230B1F1D4E06D9FF001112483
:1021D0002AC074E0679FF0011124EA0FFB1FE3A4FB
:1021E000F4A405A516A5E22AF32A042B152BE3A6D1
:1021F000F4A605A716A770CF94E0699FF0011124FB
:10220000EA0FFB1F43A554A565A576A54F5F5F4F59
:102210006F4F7F4F43A754A765A776A75DCFC4E054
:102220006C9FF0011124EA0FFB1F23A734A745A7D9
:1022300056A752CF80E0B5CFCF92DF92EF92FF92B8
:102240000F931F93CF93DF93FC01E114F10481F00E
:1022500074E0679FC00111248E0F9F1FEC018BA5B6
:102260009CA5ADA5BEA5E70188839983AA83BB83FE
:10227000DF01A60FB11D9F968C9192E09C930330D5
:10228000110509F4B0C008F07AC00130110509F455
:1022900082C00230110509F492C0813009F065C096
:1022A0008091A6018111ABC0A285B38584819581FF
:1022B00026813781EC012C833D838681978124819F
:1022C0003581EC012A833B839F012E5F3F4F11969E
:1022D0008D919D9113978217930731F48681978191
:1022E00011968D939D931397128613868C9181502E
:1022F0008C9386899091B101981710F48093B10165
:10230000A9E0A89FC001112489519E4FEC01898149
:102310009A8184839583EC014C815D814683578348
:102320004C815D81EA012A833B83EC012C833D8350
:102330008689A89FD0011124A951BE4FA287B387D7
:102340008C918F5F8C93A091A401B091A501868997
:1023500056969C91981748F4C114D10419F081E065
:10236000F601808381E08093AD0181E0DF91CF9120
:102370001F910F91FF90EF90DF90CF900895043060
:10238000110509F08ACF823009F457C0C4E06C9F70
:10239000D00111242CC0D4E06D9FD0011124AE0FC8
:1023A000BF1F9B96ED90FD900D911D91E22AF32A9F
:1023B000042B152B1E930E93FE92EE926ECF74E0BB
:1023C000679FD0011124AE0FBF1F9B964D915D9169
:1023D0006D917D914F5F5F4F6F4F7F4F7E936E93F7
:1023E0005E934E935ACF94E0699FD0011124AE0FB3
:1023F000BF1F9F965E934E933E932E934ECFA09118
:10240000C901B091CA01A687B78714968D919D9195
:10241000808B918B3E912E91CF010C96E9018A839E
:102420009B838D939D9388EC91E0848B958B809119
:10243000C8018F5F8093C80186CF80E097CFCF938C
:10244000DF93FC01DC01A60FB11D9F962C9182E069
:102450008C9384E0689FD0011124AE0FBF1F9B9620
:102460006D917D918D919D916F5F7F4F8F4F9F4FAC
:102470009E938E937E936E93213009F065C0809178
:10248000A601811164C0A285B385848195812681CE
:102490003781EC012C833D838681978124813581AE
:1024A000EC012A833B839F012E5F3F4F11968D9154
:1024B0009D9113978217930731F486819781119626
:1024C0008D939D931397128613868C9181508C93D4
:1024D00086899091B101981710F48093B101A9E019
:1024E000A89FC001112489519E4FEC0189819A81D6
:1024F00084839583EC016C817D81668377836C8115
:102500007D81EB012A833B83EC012C833D8386890B
:10251000A89FD0011124A951BE4FA287B3878C91E7
:102520008F5F8C93A091A401B091A50186895696E6
:102530009C91981748F44115510519F081E0FA0172
:10254000808381E08093AD01DF91CF910895A091C8
:10255000C901B091CA01A687B78714968D919D9144
:10256000808B918B3E912E91CF010C96E9018A834D
:102570009B838D939D9388EC91E0848B958B8091C8
:10258000C8018F5F8093C801CDCF009721F480915F
:10259000A4019091A5010FB6F8940F92FC01E60FEB
:1025A000F11D87A5823029F417A681E00F900FBE98
:1025B000089580E0FBCFCF92DF92EF92FF920097D9
:1025C00021F48091A4019091A5010FB6F8940F9287
:1025D00074E0679FF0011124E80FF91F63A574A54B
:1025E00085A596A5C3A4D4A4E5A4F6A4209530950A
:1025F00040955095C222D322E422F522C3A6D4A648
:10260000E5A6F6A60F900FBEFF90EF90DF90CF905B
:1026100008951092A5011092A4011092BE0110928B
:10262000B4011092B3011092B2011092B101109254
:10263000B0011092AF011092AE011092AD01109254
:10264000AC011092AB011092AA011092A901109254
:10265000A60108950FB6F8940F92FC01928D0F9089
:102660000FBE81E0911180E008950F931F93CF93E7
:10267000DF93EC01042F1A8D4C8D411113C088811A
:102680009981892B11F080E006C08C819D810E9488
:10269000210E1C821D821F5F1A8FDF91CF911F9127
:1026A0000F91089550E0011115C08A819B810E940D
:1026B0005D232C8D8A819B81820F911D8A839B8350
:1026C0002C813D8182179307F0F2888199818A835A
:1026D0009B83D9CF8E819F810E945D238C8D90E05A
:1026E0002E813F81281B390B2E833F8348815981DE
:1026F0002417350730F42C813D81281B390B2E839C
:102700003F83023009F0BFCF81E0111101C080E0AA
:10271000181BB9CFFC019B01948D9115A1F0492F95
:1027200050E066817781690F711D668377838481AC
:1027300095816817790720F06081718166837783BE
:10274000C9010C945D2308951F93CF93DF9300D0AC
:1027500000D0CDB7DEB78B839C830FB6F8940F9271
:10276000FC01168D7196E983FA8311162CF4EB8126
:10277000FC818189811122C08FEFEB81FC81868FE2
:102780000F900FBE0FB6F8940F92158D3896E9830F
:10279000FA8311162CF4EB81FC818085811117C01E
:1027A0008FEFEB81FC81858F0F900FBE0F900F9004
:1027B0000F900F90DF91CF911F91089589819A8199
:1027C0000E94F70B81110E94760D1150CECF8981A6
:1027D0009A810E94F70B81110E94760D1150D9CF7A
:1027E000CF93DF93EC0180E0209789F18B8D8115E9
:1027F00071F10FB6F8940F92888199812B8D4C8DD1
:10280000FC01249FE00DF11D1124EC83FD831A8E41
:102810008A839B832150330B429FF001439FF00D2D
:1028200011248E0F9F1F8E839F838FEF8D8F8E8F2E
:10283000611110C08885811539F0CE0108960E947B
:10284000F70B81110E94C4200F900FBE81E0DF9131
:10285000CF910895CE0108960E943718CE01419677
:102860000E943718F1CF0F931F93CF93DF93082F58
:10287000162F811108C0C0E0D0E0CE01DF91CF91CA
:102880001F910F910895869FC00111244F960E94B9
:102890008320EC01009779F34F96111101C0CE010E
:1028A000888399830B8F1C8F61E0CE010E94F01307
:1028B000E4CFCF93C62F811561F0861750F042E028
:1028C00060E00E943314009711F0FC01C28FCF9199
:1028D000089580E090E0FBCF0F931F93CF93DF9399
:1028E000CDB7DEB72A970FB6F894DEBF0FBECDBFC7
:1028F0008C016F8378874C835D832E8380E0980101
:10290000285F3F4F29873A870FB6F8940F92F80156
:10291000228D938D2917F8F44E816F817885C80137
:102920000E943513F8019189911521F0C801419653
:102930000E94F70B81110E94C4200F900FBE81E00E
:102940002A960FB6F894DEBF0FBECDBFDF91CF91B0
:102950001F910F910895FE81F230F1F22C813D819B
:10296000232B21F40F900FBE80E0EACF811104C029
:10297000CE0101960E94370D0F900FBE0E94720883
:102980000FB6F8940F92F801858D8F3F09F4158EDC
:10299000F801868D8F3F09F4168E0F900FBEBE0191
:1029A0006C5F7F4FCE0101960E94420D811121C0C4
:1029B0000FB6F8940F92F801928D838D0F900FBE91
:1029C000981311C06C817D8189859A850E945C0B6A
:1029D000C8010E94A4130E949109811102C00E94A3
:1029E000C42081E091CFC8010E94A4130E949109E4
:1029F000F8CFC8010E94A4130E949109B5CFCF93CC
:102A0000DF93482F60E081E00E943314EC010097CF
:102A100059F01C821D82188219821E8220E040E03B
:102A200050E0BA010E946C14CE01DF91CF9108955D
:102A30000F931F93CF93DF93EC010C811D810E94B4
:102A40008D0D0817190799F48E8181508E83811599
:102A500031F081E0DF91CF911F910F91089520E037
:102A600040E050E0BA01CE010E946C14F2CF80E049
:102A7000F1CFEF92FF921F93CF93DF93EC017A0196
:102A80009A8D8B8D981718F080E02230C1F41E8D3E
:102A90008A8D422FCE010E9435131F3FB1F48989E0
:102AA000811561F0CE0141960E94F70B811531F03E
:102AB000E114F10419F081E0F701808381E0DF91F6
:102AC000CF911F91FF90EF9008950E9487081817EB
:102AD000A8F71F5F1E8FF2CFEF92FF921F93CF9345
:102AE000DF93EC017B018A8D9B8D891710F51E8D7C
:102AF0008F5F8A8F1F3FB1F48989811561F0CE0104
:102B000041960E94F70B811531F0E114F10419F0A0
:102B100081E0F701808381E0DF91CF911F91FF90E9
:102B2000EF9008950E9487081817A8F71F5F1E8F5F
:102B3000F2CF80E0F1CFFF920F931F93CF93DF93FB
:102B4000CDB7DEB729970FB6F894DEBF0FBECDBF65
:102B50008C016E837F834C835D8380E098012F5EC0
:102B60003F4F288739870FB6F8940F92F801F28CFF
:102B7000F11409F16E817F81C8010E948A13FA94D1
:102B8000F801F28E8085811539F0C80108960E94FF
:102B9000F70B81110E94C4200F900FBE81E029968F
:102BA0000FB6F894DEBF0FBECDBFDF91CF911F915E
:102BB0000F91FF9008952C813D81232B21F40F90DC
:102BC0000FBE80E0ECCF811104C0CE0101960E94BF
:102BD000370D0F900FBE0E9472080FB6F8940F9237
:102BE000F801858D8F3F09F4158EF801868D8F3F92
:102BF00009F4168E0F900FBEBE016C5F7F4FCE01A1
:102C000001960E94420D81111CC0C8010E942A1326
:102C1000811589F06C817D81888599850E945C0B86
:102C2000C8010E94A4130E949109811102C00E9450
:102C3000C42081E098CFC8010E94A4130E9491098A
:102C4000F8CFC8010E94A4130E949109C8010E94F4
:102C50002A13811571F3B5CFFF920F931F93CF9372
:102C6000DF9300D000D000D00F92CDB7DEB78C013B
:102C70006C837D83F12C90E098012F5E3F4F2E8373
:102C80003F830FB6F8940F92D8015A968C915A97B9
:102C9000811541F181505A968C935A978D919D914F
:102CA000892B29F40E94E40EF80184839583D801CE
:102CB00018968C91811539F0C80108960E94F70B7F
:102CC00081110E94C4200F900FBE81E027960FB69D
:102CD000F894DEBF0FBECDBFDF91CF911F910F9152
:102CE000FF9008952C813D81232B21F40F900FBE7E
:102CF00080E0ECCF911104C0CE0101960E94370D07
:102D00000F900FBE0E9472080FB6F8940F92F80150
:102D1000858D8F3F09F4158ED8015E968C915E9754
:102D20008F3F11F45E961C920F900FBEBE016C5F38
:102D30007F4FCE0101960E94420D81112DC0C80126
:102D40000E942A13811511F1F80180819181892B4C
:102D500061F40FB6F8940F92D80114968D919D915D
:102D60000E94A90DF82E0F900FBE6C817D818E817F
:102D70009F810E945C0BC8010E94A4130E949109CC
:102D8000811102C00E94C42091E07BCFC8010E9443
:102D9000A4130E949109F8CFC8010E94A4130E94B5
:102DA0009109C8010E942A13811571F3F11409F4E5
:102DB0009FCF0FB6F8940F92F8016189611531F039
:102DC0000688F789E02D808164E0681BD80114969D
:102DD0008D919D910E946E0E89CF0F931F93CF937B
:102DE000DF9300D000D0CDB7DEB78B839C8369839F
:102DF0007A83FC01048115810E948D0D0817190743
:102E000039F4EB81FC8186818F5F868381E008C085
:102E100069817A818B819C810E942C168111F1CF6E
:102E20000F900F900F900F90DF91CF911F910F9106
:102E30000895EF92FF920F931F93CF93DF9300D0EB
:102E400000D000D00F92CDB7DEB78C016E837F83A8
:102E50004C835D8380E0780191E1E90EF11C0FB6AF
:102E6000F8940F92F801928D911521F1E680F78088
:102E70006E817F81C8010E948A13F801E682F78281
:102E80008189811539F0C80141960E94F70B8111A3
:102E90000E94C4200F900FBE81E027960FB6F894D1
:102EA000DEBF0FBECDBFDF91CF911F910F91FF907D
:102EB000EF9008952C813D81232B21F40F900FBEBC
:102EC00080E0EBCF811104C0CE0101960E94370D46
:102ED0000F900FBE0E9472080FB6F8940F92F8017F
:102EE000858D8F3F09F4158EF801868D8F3F09F48B
:102EF000168E0F900FBEBE016C5F7F4FCE01019604
:102F00000E94420D81111BC0C8010E942A13811525
:102F100081F06C817D81C7010E945C0BC8010E9419
:102F2000A4130E949109811102C00E94C42081E073
:102F300096CFC8010E94A4130E949109F8CFC8013E
:102F40000E94A4130E949109C8010E942A138115AE
:102F500071F3B6CFEF92FF920F931F93CF93DF934E
:102F6000EC017A010A8D80E00115C1F01D8DCE01C2
:102F70000E948A1301500A8F1F3FB9F4888581157A
:102F800061F0CE0108960E94F70B811531F0E11433
:102F9000F10419F081E0F701808381E0DF91CF91A6
:102FA0001F910F91FF90EF9008950E9487081817C6
:102FB000A0F71F5F1D8FF1CF0F931F93CF93DF9368
:102FC000EC018A8D811541F00E811F81CE010E9496
:102FD0008A130E831F8381E0DF91CF911F910F91A0
:102FE00008950FB6F8940F92FC01828D0F900FBEDA
:102FF00008950FB6F8940F92FC01228D838D821BE9
:103000000F900FBE0895FC01828D08950C949B20B3
:10301000FC01848D0895FC01838D0895FC01928D3F
:1030200081E0911180E00895FC01928D81E0238D73
:10303000291380E00895CF93DF93EC010FB6F89445
:103040000F928D8D8F3F09F41D8E8E8D8F3F09F469
:103050001E8E0F900FBE8A8D811104C0CE01419645
:103060000E94B50BCE01DF91CF910C94A413FC010B
:103070000396818392832FEF3FEF238334838583ED
:1030800096838783908710820895FC0110861186AD
:103090000895CF93DF93DC01FB0111968D919D91F3
:1030A000139782839383EC012C813D8124833583A4
:1030B0002C813D81E9016A83FB83EC016C83FD83F4
:1030C000A087B1878C918F5F8C93DF91CF9108950A
:1030D000CF93DF93DC01FB01408151819C012D5F87
:1030E0003F4F4F3F5407C9F417968D919D91199703
:1030F000EC012A813B8122833383E901EC83FD8348
:1031000084839583EC01EA83FB83A087B1878C914C
:103110008F5F8C93DF91CF910895C901E9012A81D6
:103120003B81E9016881798146175707B0F7E0CF05
:10313000CF93DF93FC01A085B18522813381848107
:103140009581E9018C839D8384819581EC012A839B
:103150003B8311962D913D9113972E173F0721F434
:1031600011968D939D931397108611868C918150A3
:103170008C93DF91CF910895FC01628373838087E4
:1031800091874617570790F0421B530B848595850E
:1031900048175907C8F4BF016E5F7F4F8091110235
:1031A000909112020E94681880E008954217530718
:1031B00018F46217730740F4BF016E5F7F4F809170
:1031C000130290911402EECF81E008950F931F93A4
:1031D000CF93DF9300D000D0CDB7DEB78B839C8335
:1031E0008B0149835A83EB81FC8164857585600F6F
:1031F000711F980149815A81CF010E94BC18811129
:1032000009C00F900F900F900F90DF91CF911F91F9
:103210000F910895AB81BC811C968D919D91080FF3
:10322000191F1296ED91FD915297CD010995DBCFB3
:10323000CF93DF9300D000D000D0CDB7DEB7898325
:103240009A836B837C83E0911302F09114020580D2
:10325000F681E02D868197818D839E8302960E9460
:103260009818AD81BE8152968C91529782FF17C0FB
:103270004B815C8169817A81CD010E94E618AD8124
:10328000BE815096ED91FD915297CD010F900F9018
:103290000F900F900F900F90DF91CF9109948E7F38
:1032A000ED81FE81828BEBCFE0911302F09114024D
:1032B000808181110DC08091110290911202809342
:1032C000130290931402E0931102F09312020895F6
:1032D0000580F681E02D6FEF7FEF808191810E9464
:1032E0001819E2CF0FB6F8940F9280910F029091C7
:1032F0001002892BE9F48EE192E00E94371885E1F3
:1033000092E00E9437188EE192E08093130290932E
:10331000140285E192E0809311029093120240E042
:1033200065E08AE00E94331480930F0290931002AC
:103330000F900FBE0895EF92FF920F930E947219A3
:1033400080910F0290911002892B99F08DE0E82E68
:1033500082E0F82E03E020E030E04CE550E061E848
:1033600071E085ED92E00E9412050F91FF90EF90C1
:10337000089580E0FACF0F931F93CF93DF93CDB7DB
:10338000DEB729970FB6F894DEBF0FBECDBF898395
:103390009A836B837C834D832E833F8383E190E00C
:1033A0000E94832088879987009701F1FC01128A87
:1033B0000E94721989819A81E885F98580839183B9
:1033C0008B819C81848795878E819F818687978753
:1033D000008B118BCF0102960E9445189D8191159B
:1033E00029F0E885F98582898460828B88859985B2
:1033F00029960FB6F894DEBF0FBECDBFDF91CF91F7
:103400001F910F9108950F931F93CF93DF9300D0D7
:1034100000D00F92CDB7DEB720910F02309110028D
:10342000232B59F480E00F900F900F900F900F9086
:10343000DF91CF911F910F91089569834A835B8338
:103440008C839D83663074F70E949C0D282F809199
:103450000F0290911002223041F420E0A801BE0139
:103460006F5F7F4F0E946C14DECF20E040E050E0A1
:10347000F6CFCF93DF9300D000D00F92CDB7DEB759
:10348000FC01DA01A90180910F02909110020097CE
:1034900049F480E00F900F900F900F900F90DF9104
:1034A000CF9108956983AA83BB83EC83FD83663043
:1034B00084F320E0BE016F5F7F4F0E943915EACF91
:1034C00080910D0290910E020895FC0184859585EE
:1034D0000895FC010FB6F8940F929289611529F0B6
:1034E0009460928B0F900FBE08959B7FFACF0FB61A
:1034F000F8940F92FC01828982FB882780F90F9053
:103500000FBE08950C94771AFC018281938108956F
:10351000FC018081918108950FB6F8940F92FC010F
:10352000828981700F900FBE08950FB6F8940F92A4
:10353000FC01868597850F900FBE08950FB6F8940D
:103540000F92FC01668777870F900FBE0895109247
:103550000F021092100210920D0210920E020895A6
:10356000CF93DF938BE090E00E948320EC010097E3
:1035700031F0FC0111921192CF010E943718CE0157
:10358000DF91CF910895AF92BF92CF92DF92EF92E9
:10359000FF920F931F93CF93DF937C01EB01B42E27
:1035A000A22E68010E947208F70100811181C801F2
:1035B0008C239D23A11016C0892BB9F4C114D1040A
:1035C000F1F081E0B11001C080E0782FA1107460AB
:1035D0006C2F7D2BA601C70102960E94740B00E0A0
:1035E00010E00FC08C179D0749F7B11441F0CE01D0
:1035F0008095909580239123F70180839183C12C3E
:10360000D12C0E949109CD28C9F0811102C00E94DD
:10361000C4200E94CD0E91FD0FC00FB6F8940F92FA
:10362000F701808191819E0128233923A11012C0C6
:10363000232B99F40F900FBE082F10E0C801DF91E3
:10364000CF911F910F91FF90EF90DF90CF90BF909F
:10365000AF900895C217D30769F7B11459F3C09515
:10366000D095C823D923F701C083D183E3CFFC01D0
:103670000FB6F8940F9280819181609570956823C0
:103680007923608371830F900FBE0895FC018081C0
:1036900091810895CF92DF92EF92FF920F931F9343
:1036A000CF93DF93EC018B017C0185E0E80EF11CE8
:1036B0000E947208EF81F88568817981602B712BF7
:1036C0006883798300E010E068817981EE15FF0559
:1036D00099F40095109506231723088319830E94F7
:1036E000910988819981DF91CF911F910F91FF906E
:1036F000EF90DF90CF900895C280D38020813181F8
:10370000822F90E0AC01462332FD04C0452B29F402
:10371000F601DACF84179507D9F730FD082B7260D0
:10372000CF010E94A40CF4CFAF92BF92CF92DF9250
:10373000EF92FF920F931F93CF93DF937C01EB01E6
:103740008A0169010E947208F701A080B180BE0160
:10375000C7010E944A1BCA29DB29CE01802391237D
:103760008017910709F03BC0F70180819181980192
:10377000209530958223932380839183C12CD12C73
:103780000E949109CD28F9F0811102C00E94C42045
:103790000E94CD0E91FD15C00FB6F8940F92F7015F
:1037A000808191819801282339232017310739F42A
:1037B000A8014095509548235923408351830F9089
:1037C0000FBEC82FD0E0CE01DF91CF911F910F9196
:1037D000FF90EF90DF90CF90BF90AF900895C1140D
:1037E000D10451F0A601B8017560C70102960E948C
:1037F000740BC0E0D0E0C4CFF701C081D181C0CF4D
:10380000CF93DF93EC010E9472088A81811107C077
:103810000E949109CE01DF91CF910C949B2060E032
:1038200072E08F8198850E94A40CEFCFBA010C94AE
:103830004A1BBA010C94371BFC014481558122813B
:103840003381240F351F80819181B901681B790B69
:10385000CB016417750710F0841B950B08958F92A8
:103860009F92AF92BF92CF92DF92EF92FF920F930F
:103870001F93CF93DF936C015B018A01E901FC0187
:10388000E480F580E21AF30A47014E155F0508F45B
:103890004A01F60184859585A401B5018C0F9D1F11
:1038A0000E945D23E016F10658F4A8014819590951
:1038B000B501680D791DF601848595850E945D230B
:1038C000CE01800F911FF601248135818217930765
:1038D00010F0821B930BDF91CF911F910F91FF90FE
:1038E000EF90DF90CF90BF90AF909F908F90089512
:1038F000CF92DF92EF92FF920F931F93CF93DF93BC
:1039000000D000D0CDB7DEB76C016B837C837A0129
:10391000C901F60122813381468540FF28C0E98232
:10392000FA828017910740F142E050E0BE016F5FDC
:103930007F4FC6010E942F1C9C01E114F10449F045
:10394000A7016B817C81C6010E942F1CF601938325
:103950008283C7010F900F900F900F90DF91CF914E
:103960001F910F91FF90EF90DF90CF9008958E15EB
:103970009F0518F77C01E1CFE12CF12CEACF8F9263
:103980009F92AF92BF92CF92DF92EF92FF920F93EE
:103990001F93CF93DF936C014B018A01E901FC0176
:1039A000E480F580E21AF30A57014E155F0508F42A
:1039B0005A01F601648575856C0F7D1FA501C40150
:1039C0000E945D23E016F10658F4A8014A195B092C
:1039D000F60164857585C4018A0D9B1D0E945D23D7
:1039E000CE01800F911FF601248135818217930744
:1039F00010F0821B930BDF91CF911F910F91FF90DD
:103A0000EF90DF90CF90BF90AF909F908F900895F0
:103A1000CF92DF92EF92FF920F931F93CF93DF939A
:103A200000D000D0CDB7DEB77C016B837C836A0108
:103A30008901FC0120813181868580FF11C042E02F
:103A400050E0BE016F5F7F4FC7010E94BF1C9C0109
:103A500089819A81C816D90608F1025011096C01B2
:103A6000C016D10608F486010115110549F0A80118
:103A70006B817C81C7010E94BF1CF7019183808309
:103A8000C8010F900F900F900F90DF91CF911F9171
:103A90000F91FF90EF90DF90CF90089500E010E03D
:103AA000EFCF0F931F93CF93DF9300D00F92CDB73B
:103AB000DEB78C0169837A834130B1F181E08B8379
:103AC000423009F01B82AB81AA0FAA0FAB83E0E062
:103AD000F0E00F3E8FEF1807F0F4C80141960E9406
:103AE0008320FC01892BB9F080E1DF011D928A95CA
:103AF000E9F7CF014096848795870F5F1F4F0483B6
:103B0000158389819A81009711F481E090E0868382
:103B10009783BB81B687CF010F900F900F90DF91F5
:103B2000CF911F910F910895B1E0BB83D0CFFC01DD
:103B3000268521FF0C949B2020E111922A95E9F71C
:103B40000895FC010FB6F8940F9280859185892B1A
:103B5000D9F482859385892BB9F4868526813781AE
:103B6000448155816485758590E1DF011D929A95A8
:103B7000E9F764877587448355832683378386876F
:103B800081E00F900FBE089580E0FBCFFC0180859F
:103B90009185892BC9F482859385892BA9F4868523
:103BA00026813781448155816485758590E1DF01E7
:103BB0001D929A95E9F76487758744835583268318
:103BC0003783868781E0089580E008956115710547
:103BD00011F461E070E0FC01248135816217730704
:103BE00020F46683778381E0089580E00895FC01E6
:103BF00044815581808191812081318162817381ED
:103C0000A081B181A817B907A9F7240F351FC901F1
:103C10000197861B970B8417950710F0841B950B53
:103C200008950C941C1C4F925F926F927F928F921A
:103C30009F92AF92BF92CF92DF92EF92FF920F933B
:103C40001F93CF93DF93CDB7DEB729970FB6F894C4
:103C5000DEBF0FBECDBF5C016E837F833A012C8334
:103C60003D83FC0184819581019726854A0120FFCF
:103C70004FC0F2E08F0E911C8815990508F04CC0DA
:103C80001C821D82C5010E94F71D2C018401920136
:103C9000A3016E817F81C5010E94781C6C01892B74
:103CA000F9F0C5010E941C1CF5012681378182179D
:103CB0009307B0F00E947208F50180859185892BE9
:103CC00069F080859185E12CF12C87019701A7018E
:103CD00067850E943710F501118610860E949109B0
:103CE000C60129960FB6F894DEBF0FBECDBFDF9197
:103CF000CF911F910F91FF90EF90DF90CF90BF90E9
:103D0000AF909F908F907F906F905F904F900895AD
:103D10008417950708F44C018C819D81892B09F447
:103D2000B1CF8E010F5F1F4FC8010E94270D08877A
:103D300019870FB6F8940F92C5010E94F71D2C0148
:103D40008815990548F5F501678580E090E00E94A7
:103D5000C5120E948D0DF501938782870F900FBECB
:103D6000CC80DD80E12CF12C87019701A701B70100
:103D700087850E94760FF50113861286BE016C5F5F
:103D80007F4F888599850E94420D811591F24114DB
:103D9000510409F477CF7ACF0F900FBEF8CFAF92CE
:103DA000BF92CF92DF92EF92FF920F931F93CF9328
:103DB000DF93EC015B017A0169018E858A0180FF46
:103DC00002C00E5F1F4FCE010E94F71D9C01A7018C
:103DD000B501CE010E94781C5C01892BC1F0CE0197
:103DE0000E941C1C2E813F818217930780F08885DA
:103DF0009985892B61F088859985E12CF12C8701C3
:103E00009701A7016F850E941C1119861886C501AC
:103E1000DF91CF911F910F91FF90EF90DF90CF90A6
:103E2000BF90AF900895AF92BF92CF92DF92EF9282
:103E3000FF920F931F93CF93DF9300D000D000D059
:103E4000CDB7DEB78D839E8369837A834B835C8392
:103E50006901FC01868580FD51C0A12CB12C82FF37
:103E600002C0A680B780C114D10409F44BC00FB6BC
:103E7000F8940F928D819E810E941C1C8C01A816C3
:103E8000B90668F0ED81FE81678580E090E00E94D0
:103E9000C5120E948D0DED81FE81918780870F9064
:103EA0000FBEA016B10688F1E12CF12C8701970115
:103EB000A701B701ED81FE8187850E94760FED8114
:103EC000FE8111861086CF010E941C1C8C01A81651
:103ED000B906D8F0C12CD12CC6010F900F900F90CD
:103EE0000F900F900F90DF91CF911F910F91FF9046
:103EF000EF90DF90CF90BF90AF90089582E0A82E12
:103F0000B12CB1CF8D819E81DFCF98014B815C8137
:103F100069817A818D819E810E94081D6C01892BA7
:103F2000C9F20E947208ED81FE8182859385892BFA
:103F300071F082859385E12CF12C87019701A7010F
:103F400067850E943710ED81FE81138612860E94DC
:103F50009109C2CF0F931F93CF93DF9300D0CDB7BA
:103F6000DEB78C01FC01868580FD09C080E090E011
:103F70000F900F90DF91CF911F910F910895C8017D
:103F80000E941C1C039790F3F8012081318142E0CC
:103F900050E0BE016F5F7F4FC8010E94BF1C898146
:103FA0009A81E6CFAF92BF92CF92DF92EF92FF92CB
:103FB0000F931F93CF93DF93EC017B015A016901AB
:103FC0008E8502E010E080FF00E0CE010E941C1C04
:103FD0000817190770F0A12CB12CC501DF91CF9102
:103FE0001F910F91FF90EF90DF90CF90BF90AF9017
:103FF00008959C01A501B701CE010E94081D5C0136
:10400000892B49F38A859B85892B39F38A859B8582
:10401000E12CF12C00E09701A7016F850E941C1193
:104020001B861A86DACFFC012081318142815381BF
:1040300081E04217530709F080E00895CF93DF93A2
:10404000FC012685C2E0D0E020FFC0E00E94F71D01
:104050009C0181E0C217D30708F480E0DF91CF9183
:104060000895CF92DF92EF92FF920F931F93CF9319
:10407000DF93EC0188859985892BB9F0888599852E
:104080006B01E12CF12C87019701A7016F850E943C
:104090001C111986188681E0DF91CF911F910F9135
:1040A000FF90EF90DF90CF90089580E0F5CFCF9212
:1040B000DF92EF92FF920F931F93CF93DF93EC0168
:1040C0008A859B85892BB9F08A859B856B01E12CBC
:1040D000F12C87019701A7016F850E941C111B8697
:1040E0001A8681E0DF91CF911F910F91FF90EF90A1
:1040F000DF90CF90089580E0F5CFFC01878508958B
:10410000FC0167870895CF93DF9300D0CDB7DEB76A
:1041100089839A830E94720889819A810E943C2235
:1041200089839A830E94910989819A810F900F90C7
:10413000DF91CF910895CF93DF93EC01892B49F064
:104140000E947208CE010E94D222DF91CF910C947E
:104150009109DF91CF910895FC01608372931292CF
:1041600020E8229312927797408352938397089581
:104170000FB6F894A89580916000886180936000E4
:10418000109260000FBE08950F920FB6F8940F9230
:104190001F9211242F923F924F925F926F927F92C3
:1041A0008F929F92AF92BF92CF92DF92EF92FF9247
:1041B0000F931F932F933F934F935F936F937F932F
:1041C0008F939F93AF93BF93CF93DF93EF93FF931F
:1041D000A091A401B091A5010DB60D920EB60D925D
:1041E0000E94CE0AA091A401B091A501CD91CDBFAE
:1041F000DD91DEBFFF91EF91DF91CF91BF91AF9144
:104200009F918F917F916F915F914F913F912F91EE
:104210001F910F91FF90EF90DF90CF90BF90AF90E4
:104220009F908F907F906F905F904F903F902F90D6
:104230001F900F900FBE0F9008950F920FB6F89435
:104240000F921F9211242F923F924F925F926F9282
:104250007F928F929F92AF92BF92CF92DF92EF9216
:10426000FF920F931F932F933F934F935F936F93FF
:104270007F938F939F93AF93BF93CF93DF93EF93EE
:10428000FF93A091A401B091A5010DB60D920EB6B9
:104290000D920E94CE0AA091A401B091A501CD91EA
:1042A000CDBFDD91DEBFFF91EF91DF91CF91BF9147
:1042B000AF919F918F917F916F915F914F913F91BE
:1042C0002F911F910F91FF90EF90DF90CF90BF90B3
:1042D000AF909F908F907F906F905F904F903F90A6
:1042E0002F901F900F900FBE0F9018950F920FB642
:1042F000F8940F921F9211242F923F924F925F9247
:104300006F927F928F929F92AF92BF92CF92DF92E5
:10431000EF92FF920F931F932F933F934F935F93CF
:104320006F937F938F939F93AF93BF93CF93DF93BD
:10433000EF93FF93A091A401B091A5010DB60D924A
:104340000EB60D9213BE0E94920881110E94CE0AF1
:10435000A091A401B091A501CD91CDBFDD91DEBFAB
:10436000FF91EF91DF91CF91BF91AF919F918F918D
:104370007F916F915F914F913F912F911F910F917D
:10438000FF90EF90DF90CF90BF90AF909F908F9075
:104390007F906F905F904F903F902F901F900F9065
:1043A0000FBE0F9008950E94D003A091A401B09178
:1043B000A501CD91CDBFDD91DEBFFF91EF91DF91E2
:1043C000CF91BF91AF919F918F917F916F915F91AD
:1043D0004F913F912F911F910F91FF90EF90DF90A0
:1043E000CF90BF90AF909F908F907F906F905F9095
:1043F0004F903F902F901F900F900FBE0F900895F9
:1044000081E008950E9476211895A29FB001B39F84
:10441000C001A39F700D811D1124911DB29F700DCD
:10442000811D1124911D0895A1E21A2EAA1BBB1B08
:10443000FD010DC0AA1FBB1FEE1FFF1FA217B30770
:10444000E407F50720F0A21BB30BE40BF50B661F86
:10445000771F881F991F1A9469F76095709580954A
:1044600090959B01AC01BD01CF010895EE0FFF1F98
:104470000590F491E02D09940F931F93CF93DF9350
:104480008230910510F482E090E0E0912B02F091EF
:104490002C0220E030E0D901309799F42115310544
:1044A00009F447C0281B390B24303105B8F5DB016E
:1044B00012968D919D91209761F18A839B83FB01D8
:1044C0000DC0408151810281138148175907C0F006
:1044D00089F4109751F012960D931C933296CF01E8
:1044E000DF91CF911F910F91089500932B021093AC
:1044F0002C02F4CF2115310551F04217530738F043
:10450000A901DE019A01ED01DF01F801C5CFBF016C
:10451000F9CF80932B0290932C02D1CFFB01E20FB5
:10452000F31F8193919322503109DB012D933D9329
:10453000D6CF40912D0250912E024115510541F4E4
:10454000409102015091030140932D0250932E029D
:1045500020910001309101012115310541F42DB761
:104560003EB76091040170910501261B370B42177D
:10457000530708F0B4CF241B350B2817390708F46C
:10458000AECFBC016E5F7F4F2617370708F4A7CF69
:10459000640F751F60932D0270932E02FA018193B0
:1045A00091939DCF009709F463C0FC01329712826A
:1045B000138220912B0230912C02D90140E050E06F
:1045C0002115310591F420813181820F931F2091B3
:1045D0002D0230912E022817390709F063C0E093AD
:1045E0002D02F0932E020895DB01AE17BF0708F0ED
:1045F00040C012966D917D911497AD0161157105C2
:1046000099F7DA011296ED93FD9314976D917D91D0
:10461000CD01860F971FE817F90761F4808191811A
:104620000296860F971FDA018D939D938281938165
:104630008D939D93E0E0F0E0D90112968D919D91CC
:1046400014970097A1F58D919D918A0F9B1F409122
:104650002D0250912E024817590751F4309751F509
:1046600010922B0210922C0220932D0230932E02D6
:104670000895A283B38360817181860F971FA81765
:10468000B90761F46E5F7F4F8D919D91860F971FE3
:10469000808391838D919D918283938341155105F0
:1046A00009F0AFCFE0932B02F0932C020895F901AB
:1046B0009C01C2CF12821382D7CFFB01DC0102C062
:1046C00001900D9241505040D8F70895DC0101C08F
:1046D0006D9341505040E0F70895F894FFCF6C037C
:1046E0006C03AF039803A9036C036C03AF03980337
:1046F00000002F02200003675820686967683A208D
:10470000006758206C6F773A200067592068696706
:10471000683A20006759206C6F773A2000675A206A
:10472000686967683A2000675A206C6F773A200002
:104730004C6566743A200052696768743A200054E8
:10474000656D703A2000494D55004C6967687400EA
:1047500054656D70003078000D0A0030313233340A
:1047600035363738394142434445460049444C4583
:0A47700000546D72205376630000C0
:00000001FF
