:100000000C9434000C9451000C9451000C94510049
:100010000C9451000C9451000C9451000C9451001C
:100020000C9451000C9451000C9451000C9451000C
:100030000C9451000C9451000C9451000C945100FC
:100040000C9451000C9451000C9451000C945100EC
:100050000C9451000C9451000C9451000C945100DC
:100060000C9451000C94510011241FBECFEFD8E026
:10007000DEBFCDBF11E0A0E0B1E0E2ECF3E002C0F2
:1000800005900D92A635B107D9F721E0A6E5B1E0BC
:1000900001C01D92A236B207E1F70E9492010C94B2
:1000A000DF010C9400006CE388E60E940E0180934F
:1000B00061016BE388E60E940E01809360016EE3AC
:1000C00088E60E940E0180935F016DE388E60E943E
:1000D0000E0180935E0160E488E60E940E01809329
:1000E0005D016FE388E60E940E0180935C01209120
:1000F00061019091600120935A0190935B012091DE
:100100005F0190915E012093580190935901909165
:100110005D01292F382FC901809356019093570113
:1001200080E091E00E944501809160010E945201AF
:1001300089E091E00E944501809161010E94520195
:1001400081E191E00E94450180915E010E9452018F
:100150008AE191E00E94450180915F010E94520175
:1001600082E291E00E94450180915C010E9452016F
:100170008BE291E00E94450180915D010C94520157
:1001800088E48093B800089584EA8093BC0080914D
:10019000BC0087FFFCCF089584E98093BC00809168
:1001A000BC0084FDFCCF08958093BB0084E880935D
:1001B000BC008091BC0087FFFCCF089584EC809345
:1001C000BC008091BC0087FFFCCF8091BB000895EC
:1001D00084E88093BC008091BC0087FFFCCF8091B5
:1001E000BB000895CF93DF9300D00F92CDB7DEB759
:1001F00089836A834B830E94C4008981880F0E948F
:10020000D4008A810E94D4008B810E94D4000F9078
:100210000F900F90DF91CF910C94CC00CF93DF9390
:1002200000D0CDB7DEB78A8369830E94C4008A817B
:10023000880F8A830E94D40089810E94D4000E9482
:10024000C4008A8181600E94D4000E94E8008983F2
:100250000E94CC0089810F900F90DF91CF9108957B
:100260009B01AC0160E472E48FE090E00E94BD016C
:10027000215031093093C5002093C40088E1809358
:10028000C10086E08093C2000895FC012081211105
:1002900001C0089501963091C00035FFFCCF209336
:1002A000C600F3CF1F93CF93DF93CDB7DEB761972F
:1002B0000FB6F894DEBF0FBECDBF182F81E1E4E486
:1002C000F1E0DE01119601900D928A95E1F78EE33F
:1002D00091E00E9445018091C00085FFFCCF812FF5
:1002E00082958F70FE013196E80FF11D8081809319
:1002F000C6008091C00085FFFCCF1F70FE013196C3
:10030000E10FF11D80818093C60081E491E0619648
:100310000FB6F894DEBF0FBECDBFDF91CF911F9116
:100320000C9445010F92CDB7DEB70E94C0002FEFAD
:1003300081EE94E0215080409040E1F700C0000041
:1003400040E06BE688E60E94F2000E94530065E7F9
:1003500088E60E940E01898383E391E00E944501B3
:1003600089810E9452012FEF89E698E12150804057
:100370009040E1F700C00000E8CFA1E21A2EAA1BCE
:10038000BB1BFD010DC0AA1FBB1FEE1FFF1FA21745
:10039000B307E407F50720F0A21BB30BE40BF50B42
:1003A000661F771F881F991F1A9469F760957095CB
:1003B000809590959B01AC01BD01CF010895F89403
:0203C000FFCF6D
:1003C2005820686967683A200058206C6F773A2095
:1003D200005920686967683A200059206C6F773AA3
:1003E20020005A20686967683A20005A206C6F77AB
:1003F2003A200057484F5F414D5F493A200030781C
:10040200000D0A0030313233343536373839414243
:06041200434445460000D2
:00000001FF
